:020000040800F2
:10000000E820002005010008AD2C0008BF260008EC
:10001000A92C0008B7040008F93B00080000000004
:10002000000000000000000000000000D5320008C1
:100030002905000800000000F1300008BB3300086B
:100040001F0100081F0100081F0100081F01000810
:100050001F0100081F0100081F0100081F01000800
:100060001F0100081F0100081F0100081F010008F0
:100070001F0100081F010008BD040008CD0400088E
:10008000DD040008ED0400081F0100081F0100083E
:100090001F0100081F0100081F0100081F010008C0
:1000A0001F0100081F0100081F0100081F010008B0
:1000B0001F0100081F0100081F0100081F010008A0
:1000C0001F0100081F0100081F0100081F01000890
:1000D0001F010008D13B0008E53B00081F01000894
:1000E0001F0100081F0100081F010008DFF810D0E1
:1000F00000F098F900480047253E0008AFF3008063
:10010000E82000200648804706480047FEE7FEE753
:10011000FEE7FEE7FEE7FEE7FEE7FEE7FEE7FEE7B7
:1001200029340008ED000008D2B201E000F8012BEC
:10013000491EFBD270470022F6E710B513460A4667
:1001400004461946FFF7F0FF204610BDF0B480EAE0
:100150000102D40F4200B2EB410F02D20246084620
:1001600011464A0042D0C30DDDB2C1F3C752AD1AE9
:10017000202D35DAC1F3160141F4000204B15242D8
:10018000C5F1200602FA06F12A411044B3EBD05F14
:1001900023D0C4B1012DA0EBC35009DCF0BC4FF05B
:1001A000004202EAC352DBB200F5000000F0D5B80D
:1001B000400000F1807000EBC350A0F1807040EA75
:1001C000D170490009E0490841EAC071A0EBC35071
:1001D00000F50000400800EBC350F0BC00F0B4B8DC
:1001E0006142012202EB4101001BF6E7F0BC7047BF
:1001F00081F00041AAE780F00040A7E780EA010211
:1002000010B502F00043400022D04A001FD0010E7A
:1002100001EB1261C0F35600C2F3560240F4000035
:1002200042F40002A0FB022000047F39140400D035
:10023000401C50EA124001D44000491EC2B20C06D4
:1002400004EBD010401C4008802A02D003E00020BC
:1002500010BD20F00100002900DA0020184310BD75
:1002600030B480EA010202F0004530F0004221F093
:10027000004013D090B1C30DD40DC2F31601C0F3EA
:100280001600E41A41F4000140F400027D3491426A
:1002900001D3641C00E04900002C02DA30BC0020CD
:1002A00070474FF400000023914201D3891A0343A1
:1002B00040084FEA4101F7D151B1914202D14FF0CC
:1002C000004105E002D24FF0010101E06FF00101B1
:1002D00003EBC450284430BC00F036B8C10F80EAAC
:1002E000E0700844CA079623002100F036B8962330
:1002F0000022114600F031B820F00040C10DC0F3DB
:10030000160040F400007F2901DA0020704796298A
:1003100003DCC1F19601C8407047963988407047A8
:10032000002801DBC0F10040002901DBC1F10041E0
:1003300081427047002801DBC0F10040002901DB49
:10034000C1F10041884270470029A8BF7047401C96
:10035000490008BF20F00100704710B4B0FA80FCDB
:1003600000FA0CF050EA010404BF10BC704749B118
:10037000CCF1200421FA04F411FA0CF118BF012188
:1003800021430843A3EB0C01CB1D4FEA00614FEA68
:10039000102042BF002010BC704700EBC350104437
:1003A0000029A4BF10BC7047401C490008BF20F0C2
:1003B000010010BC704710B541000CD0C0F3C7510C
:1003C000962908DC7E2909DC06DB410204D000F016
:1003D000004040F07E5010BD002010BDC1F19604D9
:1003E000C4F1200100FA01F1E040FFF7ADFFA040A9
:1003F00010BD00F0004220F00040C10DC0F3160017
:1004000040F400007F2901DA00207047962903DCC0
:10041000C1F19601C84001E096398840002AF4D025
:1004200040427047064C074D06E0E06840F001038B
:1004300094E8070098471034AC42F6D3FFF75AFE11
:10044000F840000818410008420005D0C0F3C75228
:100450005242914201DC0020704700EBC1507047CE
:1004600070B58C1810F8015B15F0070301D110F876
:10047000013B2A1106D110F8012B03E010F8016BA3
:1004800001F8016B5B1EF9D12B0705D40023521E26
:100490000DD401F8013BFAE710F8013BCB1A921C8E
:1004A00003E013F8015B01F8015B521EF9D5A1428C
:1004B000D8D3002070BD00BFFEE7000010B5024891
:1004C00000F092FA10BD00009817002010B5024805
:1004D00000F08AFA10BD00005417002010B5024841
:1004E00000F082FA10BD0000DC17002010B50248B1
:1004F00000F07AFA10BD00002018002030B590F806
:1005000040500124AC40C56B6C6004686360446873
:10051000102C04D10468A2600468E16003E0046860
:10052000A1600468E26030BD704708B50120042373
:10053000182220210090104602F0EAFB012004233B
:10054000182220210090502002F0E2FB08BD08B5DF
:1005500001201A231222142100901C2002F0D8FB43
:10056000002016230E22194600901E2002F0D0FB18
:100570000120082304221D210090232002F0C8FB43
:1005800001201A23122214210090522002F0C0FBF5
:10059000002016230E2219460090542002F0B8FBCA
:1005A0000120082304221D210090592002F0B0FBF5
:1005B00008BD08B501201A231222142100901C2026
:1005C00002F0A6FB01201A231222142100905220CF
:1005D00002F09EFB08BD08B5012020231A2210213D
:1005E0000090182002F094FB00201C2316221221F8
:1005F00000901A2002F08CFB012004231A461E21D1
:100600000090232002F084FB012020231A221021D5
:1006100000904E2002F07CFB012004231A461E218C
:100620000090592002F074FB08BD08B50120042396
:10063000082222210090162002F06AFB01200423E8
:1006400008221C210090084602F062FB01200423CE
:10065000082222210090084602F05AFB01200423C0
:10066000082222210090482002F052FB012004239E
:1006700008221C2100904E2002F04AFB0120042396
:10068000082222210090542002F042FB08BD72B6DD
:1006900000BFFEE72DE9FC41684602F08DFD002811
:1006A0007ED00020784908609DF8010077490978DC
:1006B00088420CD0764802F0EFFC764802F0ECFC61
:1006C0009DF80100042802D10020734908609DF8BC
:1006D00001006E4908709DF80100704908700846D5
:1006E000007806287ED2DFE800F0C540BE93032BD9
:1006F0006B4969480068FFF729FD674908600846AB
:10070000006803F00FFC05464FF08241FFF776FDCD
:10071000044621466348FFF719FD0546294662480D
:1007200002F0FCFD6149624802F0F8FD61495A4857
:100730000068FFF7FFFD02D20020574908609AE0E9
:10074000BDF90200002801DD5B4800E05B4801467E
:100750005448FFF7FBFC04462146534802F0DEFDF7
:100760005749534802F0DAFD85E05648016856487B
:10077000FFF744FD0546BDF90200FFF7AFFD064651
:100780005249FFF73BFD04462946FFF7DFFC4D4980
:1007900008604F4801684C48FFF730FD054600E00F
:1007A0006AE0BDF90400FFF799FD06464749FFF7E7
:1007B00025FD04462946FFF7C9FC45490860414824
:1007C00000210268324802F0B7FB42490860404805
:1007D000002102682F4802F0AFFB3F490860324910
:1007E000886800E046E03B490968FFF701FD0446E0
:1007F00021462D4802F092FD2D4988683649096846
:10080000FFF7F6FC04462146294802F087FD32E056
:10081000254881682348FFF7EBFC0546244881689A
:100820002248FFF7E5FC06462C492846FFF7E6FC80
:1008300007461D4881683846FFF788FC0446214674
:10084000194802F06BFD25493046FFF7D7FC0746F3
:10085000174881683846FFF779FC0446214614485A
:1008600002F05CFD07E00A4802F016FC094802F0BD
:1008700013FC00E000BF04E003480068401C02498C
:100880000860BDE8FC8100003C15002048150020F0
:1008900098150020E0150020441500204015002088
:1008A000CDCC4C3E0000A042581500200000F04284
:1008B00078150020C3F548410000A0C10000A04108
:1008C000000007432C1500209A99193FCDCCCC3E4F
:1008D000301500203415002038150020CDCC4C3DBB
:1008E0000146002291F82100022808D004208863E4
:1008F00000BF002081F8200000BF01207047086879
:10090000006820F00E000B6818600868006820F08E
:1009100001000B68186091F8403001209840CB6BC3
:100920005860012081F8210000BF002081F82000DC
:1009300000BF1046E2E7000070B50446002594F8B9
:100940002100022803D00420A063012548E020688C
:10095000006820F00E00216808602068006820F020
:100960000100216808601F492068884201D10120E8
:1009700026E01C4914312068884201D110201FE074
:10098000184928312068884201D1801518E015499E
:100990003C312068884201D1801411E01149503166
:1009A0002068884202D14FF4803009E00D4964315B
:1009B0002068884202D14FF4801001E04FF080702F
:1009C000084908394860012084F8210000BF002050
:1009D00084F8200000BF606B10B12046616B88472F
:1009E000284670BD0800024070B50446E06B0568FB
:1009F0002068066894F840100420884028400028A9
:100A000046D006F00400002842D02068006800F0BC
:100A1000200028B92068006820F0040021680860E0
:100A200057492068884201D1042027E054491431F5
:100A30002068884201D1402020E0514928312068B7
:100A4000884201D1001519E04D493C3120688842A7
:100A500002D14FF4804011E049495031206888426A
:100A600002D14FF4802009E0454964312068884272
:100A700002D14FF4800001E04FF080604049083916
:100A80004860E06A00287AD02046E16A884776E02C
:100A900094F84010022088402840A0B306F00200DD
:100AA00088B32068006800F0200040B92068006822
:100AB00020F00A0021680860012084F821003049F4
:100AC0002068884201D1022028E02D491431206895
:100AD000884201D1202021E029492831206888421C
:100AE00001D140151AE026493C312068884202D1E4
:100AF0004FF4005012E0224950312068884203D15F
:100B00004FF400300AE017E01D4964312068884244
:100B100002D14FF4001001E04FF00070184908397D
:100B2000486000BF002084F8200000BFA06A30B3F6
:100B30002046A16A884722E094F8401008208840A7
:100B40002840E0B106F00800C8B12068006820F035
:100B50000E002168086094F8401001208840E16B85
:100B600048600120A06384F8210000BF002084F8C1
:100B7000200000BF206B10B12046216B884770BD5C
:100B8000080002400146002209B901207047164BB7
:100B90000868C01A1423B0FBF3F080000864124800
:100BA0000838C863022081F821000868026843F60B
:100BB000F0708243D1E901031843CB6818430B69F5
:100BC00018434B6918438B691843CB691843024398
:100BD0000868026000208863012081F8210000205D
:100BE00081F8200000BFD1E7080002402DE9F04164
:100BF00004460D4616461F464FF0000800BF94F805
:100C00002000012802D10220BDE8F081012084F8F3
:100C1000200000BF94F8210001282CD1022084F884
:100C200021000020A0632068006820F001002168F6
:100C300008603B46324629462046FFF75FFCE06AE3
:100C400030B12068006840F00E00216808600BE0B9
:100C50002068006820F004002168086020680068AF
:100C600040F00A00216808602068006840F0010038
:100C70002168086006E000BF002084F8200000BF63
:100C80004FF002084046BFE72DE9F847034600222F
:100C900094466EE14FF0010808FA02F4D1F80080A2
:100CA00008EA0400A0427DD1DFF8DCA2D1F804807C
:100CB000A8EB0A09D0453AD014DCB8F1030F50D0A4
:100CC00009DCB8F1000F31D0B8F1010F1CD0B8F138
:100CD000020F49D120E0B8F1110F18D0B8F1120F6E
:100CE00042D11EE0B9F5881F25D006DCB9F5803F5A
:100CF00020D0B9F5801F37D11AE0B9F5001F18D000
:100D0000B9F5041F30D117E0D1F80CC02DE0D1F8AF
:100D10000C8008F1040C28E0D1F80C8008F1080CD4
:100D200023E0D1F80C8008F10C0C1EE000BF00BFDE
:100D300000BF00BF00BF00BFD1F80880B8F1000FAE
:100D400002D14FF0040C0BE0D1F80880B8F1010F8C
:100D500003D14FF0080C1C6102E04FF0080C5C61FD
:100D600003E04FF0000C00E000BF00BFFF2801D8F7
:100D7000984601E003F104084646FF2802D84FEAEE
:100D8000820803E0A2F108084FEA88084746D6F82F
:100D900000804FF00F0909FA07F928EA09080CFA50
:100DA00007F900E088E048EA0908C6F80080D1F8B1
:100DB000048008F08058B8F1805F7DD100BFDFF873
:100DC000CC81D8F8188048F00108DFF8C091C9F844
:100DD0001880C846D8F8188008F00108CDF80080BF
:100DE00000BF00BF4FEAB9384FEA920958F82950BE
:100DF0004FEA82784FEA18794FF00F0808FA09F89D
:100E000025EA0805DFF88881434502D14FF0000844
:100E100016E0DFF88081434502D14FF001080FE072
:100E2000DFF87481434502D14FF0020808E0DFF893
:100E30006C81434502D14FF0030801E04FF00408F4
:100E40004FEA82794FEA197908FA09F848EA050564
:100E5000DFF84C814FEA920948F82950D1F8048014
:100E600008F48018B8F5801F0AD1DFF83881D8F867
:100E7000008048EA0008DFF82C91C9F8008009E0FA
:100E8000DFF82081D8F8008028EA0008DFF8149104
:100E9000C9F80080D1F8048008F40018B8F5001FE4
:100EA00010D1DFF8008108F10408D8F8008048EA82
:100EB0000008DFF8F09000E05AE009F10409C9F8F1
:100EC00000800DE0DFF8DC8008F10408D8F800802D
:100ED00028EA0008DFF8CC9009F10409C9F800807D
:100EE000D1F8048008F40038B8F5003F0ED1DFF8DF
:100EF000B480A8F10408D8F8008048EA0008DFF8B8
:100F0000A490A9F10409C9F800800DE0DFF89480ED
:100F1000A8F10408D8F8008028EA0008DFF88490D7
:100F2000A9F10409C9F80080D1F8048008F48038D8
:100F3000B8F5803F0ED1DFF86C80A8F10808D8F82A
:100F4000008048EA0008DFF85C90A9F10809C9F8B8
:100F500000800DE0DFF84C80A8F10808D8F8008088
:100F600028EA0008DFF83C90A9F10809C9F80080D8
:100F7000521CD1F8008028FA02F8B8F1000F7FF473
:100F800089AEBDE8F8870000000011100010024093
:100F900000080140000C0140001001400014014015
:100FA0000800014008040140014800687047000043
:100FB0001415002070B504460CB9012070BD94F8DA
:100FC0003D0028B9002084F83C00204600F08CF950
:100FD000242084F83D002068006820F0010021688A
:100FE00008602068006840F40040216808602068BC
:100FF000006820F400402168086000F04FFB0546BF
:101000005C496068884206D85B48854201D201206D
:1010100007E0002005E05948854201D2012000E0A8
:101020000020012800D1C9E75548B5FBF0F620683B
:10103000406820F03F003043216848604D496068B7
:10104000884201D8701C07E04FF4967070434FF44B
:101050007A71B0FBF1F0401C2168096A21F03F0170
:1010600008432168086243496068884214D8681EB2
:1010700061684900B0FBF1F0401CC0F30B0004288C
:1010800001D204203DE0681E61684900B0FBF1F028
:10109000401CC0F30B0034E0A06838B9681E6168DA
:1010A00001EB4101B0FBF1F0401C0AE0681E6168F1
:1010B00001EBC10202EB0111B0FBF1F0401C40F466
:1010C0008040C0F30B0008B901201AE0A06848B9BD
:1010D000681E616801EB4101B0FBF1F0401CC0F3F8
:1010E0000B000CE0681E616801EBC10202EB01110C
:1010F000B0FBF1F0401CC0F30B0040F4804040F422
:1011000000402168C9694CF6FF7291430843216889
:10111000C861D4E9070108432168096821F0C001CA
:10112000084321680860D4E90310084321688968EE
:1011300048F2FF329143084321688860D4E90501F1
:1011400008432168C96821F0FF0108432168C8608D
:101150002068006840F001002168086000202064D9
:10116000202084F83D000020206384F83E0000BF6A
:1011700024E70000A086010080841E0000093D00D5
:1011800040420F002DE9FC5F04460F469046994609
:10119000DDE90CAB0E9EFFF707FF054694F83D0016
:1011A00020287DD1192301224D492046009501F0C8
:1011B0004AFB10B10220BDE8FC9F00BF94F83C0040
:1011C000012801D10220F6E7012084F83C0000BF8D
:1011D0002068006800F0010028B92068006840F02D
:1011E0000100216808602068006820F40060216820
:1011F0000860212084F83D00402084F83E00002053
:101200002064C4F824A0A4F82AB0608D2085354855
:10121000E0624B46424639462046CDE9006501F082
:101220006FFA08B10120C6E731E02A463146204670
:1012300001F0E5FB50B1206C042805D1206800685E
:1012400040F40070216808600120B4E7606A00780B
:1012500021680861606A401C6062208D401E208504
:10126000608D401E608520684069C0F3800070B1C9
:10127000208D60B1606A007821680861606A401C56
:101280006062208D401E2085608D401E6085208D0F
:101290000028CAD12A463146204601F0A1FA00E0D2
:1012A0001CE050B1206C042805D12068006840F48F
:1012B00000702168086001207DE72068006840F424
:1012C000007021680860202084F83D00002084F828
:1012D0003E0000BF84F83C0000BF6CE702206AE7D4
:1012E000020010000000FFFF10B586B00446002089
:1012F000029003900490059016492068884226D1F8
:1013000000BF1548806940F008001349886108460D
:10131000806900F00800019000BF00BF4FF44060FA
:101320000290122003900320059002A90B48FFF7BA
:10133000ABFC00BF0848C06940F480000649C861A2
:101340000846C06900F48000019000BF00BF06B0ED
:1013500010BD00000058004000100240000C014089
:101360000348006803490978084401490860704748
:10137000141500201C15002010B50848006840F026
:10138000100006490860032000F0A8F80F2000F0C4
:1013900007F800F02BF8002010BD000000200240EC
:1013A00070B504460E4800784FF47A71B1FBF0F046
:1013B0000C490968B1FBF0F5284600F0F9FB08B1CB
:1013C000012070BD102C07D200222146501E00F0D3
:1013D00047F80548046001E00120F2E70020F0E74B
:1013E0001C150020201500201815002008B500BF8E
:1013F0001148806940F001000F4988610846806902
:1014000000F00100009000BF00BF00BF0846C069A7
:1014100040F08050C8610846C06900F080500090DC
:1014200000BF00BF00BF0549486820F0E06040F001
:101430000070486000BF08BD00100240000001407D
:1014400001460846002809DB00F01F0301229A40EC
:1014500043099B0003F1E023C3F8002100BF70475C
:101460002DE9F05F80460D461646002702F0E8FBA6
:10147000074639462A46334601F00700C0F1070AFD
:10148000BAF1040F02D94FF0040A01E0C0F1070AD3
:10149000D14600F1040ABAF1070F02D24FF0000A58
:1014A00001E0A0F1030AD4464FF0010A0AFA09FA52
:1014B000AAF1010A0AEA020A0AFA0CFA4FF0010B31
:1014C0000BFA0CFBABF1010B0BEA030B4AEA0B0422
:1014D0002146404602F0BCFBBDE8F09F00BF00F093
:1014E0000702064B19684FF6FF031940044B0B43E4
:1014F00043EA0221014B196000BF70470CED00E088
:101500000000FA0570B504460D460CB9012070BD07
:101510005A48006800F00700A8420ED257480068F9
:1015200020F007002843554908600846006800F08D
:101530000700A84201D00120E9E7207800F002006E
:1015400002281DD1207800F00400042805D14C4861
:10155000406840F4E0604A494860207800F00800A4
:10156000082805D14648406840F460504449486026
:101570004348406820F0F000A168084340494860B3
:10158000207800F0010078B36068012806D13C485B
:10159000006800F4003090B90120B8E760680228C4
:1015A00006D13748006800F0007040B90120AEE76E
:1015B0003348006800F0020008B90120A7E730486E
:1015C000406820F00300616808432D494860FFF738
:1015D000EBFC064609E0FFF7E7FC801B41F288318F
:1015E000884202D9032092E707E02548406800F0CE
:1015F0000C006168B0EB810FEDD12048006800F06D
:101600000700A8420ED91D48006820F007002843B3
:101610001A4908600846006800F00700A84201D097
:10162000012074E7207800F00400042807D1144852
:10163000406820F4E060E168084311494860207880
:1016400000F00800082808D10D48406820F46050D8
:10165000216940EAC1000A49486000F03FF80849A2
:101660004968C1F30311074A515CC8400649086044
:1016700006480068FFF794FE002048E7002002407B
:1016800000100240BE400008201500201815002060
:1016900001480068704700002015002000B5FFF7E2
:1016A000F7FF04494968C1F30221034A515CC8406D
:1016B00000BD000000100240CE40000800B5FFF75A
:1016C000E7FF04494968C1F3C221034A515CC8409D
:1016D00000BD000000100240CE40000870B500219F
:1016E0000022002400230020134D696801F00C053E
:1016F000F5B1042D02D0082D19D101E00F4819E0F1
:101700000F4DC1F38346AB5D01F4803555B10A4DF1
:101710006D68C5F340450B4E725D084D5D43B5FBEA
:10172000F2F402E0084D03FB05F4204602E000BF9E
:10173000024800BF00BF70BD0010024000127A00D6
:10174000AC400008BC40000800093D00F8B5044664
:101750000CB90120F8BD207800F00100002878D0F5
:10176000F848406800F00C0004280CD0F5484068A8
:1017700000F00C00082811D1F248406800F48030D5
:10178000B0F5803F0AD1EF48006800F4003000282F
:101790005FD0606800285CD10120DBE700BF606893
:1017A000B0F5803F06D1E748006840F48030E54955
:1017B000086028E0606858B9E248006820F480308A
:1017C000E04908600846006820F4802008601AE0BC
:1017D0006068B0F5A02F0BD1DA48006840F4802093
:1017E000D84908600846006840F4803008600AE084
:1017F000D448006820F48030D24908600846006868
:1018000020F48020086000BF606888B1FFF7CCFB3F
:10181000054606E0FFF7C8FB401B642801D90320FA
:1018200098E7C848006800F400300028F2D010E0C3
:10183000FFF7BAFB054606E0FFF7B6FB401B64283E
:1018400001D9032086E7BF48006800F40030002873
:10185000F2D1207800F00200022857D1B948406840
:1018600000F00C0050B1B748406800F00C000828A8
:1018700018D1B448406800F4803098B9B148006885
:1018800000F0020020B12069012801D0012061E7A9
:10189000AC48006820F0F800616940EAC100A9493D
:1018A000086033E02069E8B10120A7490860FFF72C
:1018B0007BFB054606E0FFF777FB401B022801D9BA
:1018C000032047E79F48006800F002000028F2D09C
:1018D0009C48006820F0F800616940EAC10099491D
:1018E000086013E0002098490860FFF75DFB05469B
:1018F00006E0FFF759FB401B022801D9032029E726
:101900009048006800F002000028F2D1207800F032
:10191000080008282DD1A069B8B101208B490860C2
:10192000FFF742FB054606E0FFF73EFB401B02289F
:1019300001D903200EE78348406A00F00200002826
:10194000F2D0012001F050FC13E000207F49086034
:10195000FFF72AFB054606E0FFF726FB401B02289F
:1019600001D90320F6E67748406A00F0020000281B
:10197000F2D1207800F00400042873D100277148C8
:10198000C06900F0805070B900BF6E48C06940F077
:1019900080506C49C8610846C06900F080500090D2
:1019A00000BF00BF01276A48006800F48070B0B92A
:1019B0006748006840F4807065490860FFF7F4FAF2
:1019C000054606E0FFF7F0FA401B642801D9032022
:1019D000C0E65F48006800F480700028F2D000BFC5
:1019E000E068012806D15748006A40F001005549D7
:1019F000086227E0E06858B95248006A20F0010008
:101A0000504908620846006A20F00400086219E0A4
:101A1000E06805280BD14B48006A40F004004949B2
:101A200008620846006A40F0010008620AE0454882
:101A3000006A20F00100434908620846006A20F06D
:101A40000400086200BFE068A0B1FFF7ADFA0546E8
:101A500009E0FFF7A9FA401B41F28831884202D918
:101A6000032077E622E03748006A00F002000028F1
:101A7000EFD012E0FFF798FA054608E0FFF794FA76
:101A8000401B41F28831884201D9032062E62D488B
:101A9000006A00F002000028F0D1012F05D129488A
:101AA000C06920F080502749C86100BFE069C8B311
:101AB0002448406800F00C00082860D0E069022843
:101AC00048D1002020490866FFF76EFA054606E077
:101AD000FFF76AFA401B022801D903203AE61948A9
:101AE000006800F000700028F2D1206AB0F5803F55
:101AF00007D11448406820F40030A1680843114918
:101B00004860D4E9080108430E49496821F474117A
:101B100008430C49486001200B490866FFF744FA66
:101B2000054607E03DE0FFF73FFA401B022801D9D8
:101B300003200FE60348006800F000700028F2D090
:101B40002FE00000001002400000424280044242A8
:101B500000700040002014490866FFF725FA05468A
:101B600006E0FFF721FA401B022801D90320F1E526
:101B70000E48006800F000700028F2D111E0E06922
:101B8000012800D1E6E50948466806F48031206A5C
:101B9000814204D106F47011606A814201D00120B3
:101BA000D8E50020D6E500000000424200100240C7
:101BB00070B504462546681EB0F1807F01D3012030
:101BC0000FE0681E4FF0E02148610F214FF0FF3019
:101BD00002F03EF800204FF0E02188610720086104
:101BE000002070BD30B502460B4600BF92F83C00A5
:101BF000012801D1022030BD012082F83C0000BF45
:101C0000022082F83D00106844681068816824F062
:101C100070041868044310684460104D1068A842AE
:101C20000BD01068B0F1804F07D00D4D1068A8425E
:101C300003D00C4D1068A84205D121F080015868EE
:101C4000014310688160012082F83D0000BF002040
:101C500082F83C0000BF00BFCDE70000002C01402F
:101C6000000400400008004010B504460CB90120F3
:101C700010BD94F83D0028B9002084F83C002046AF
:101C800000F026F8022084F83D00211D206801F0B4
:101C9000CDFB012084F8460000BF84F83E000121FE
:101CA0003F200155402001554120015500BF00BF94
:101CB000012084F84200432001554420015545206D
:101CC000015500BF012084F83D000020D0E700004E
:101CD00008B50168B1F1804F0DD100BF0649C9694F
:101CE00041F00101044AD1611146C96901F00101C5
:101CF000009100BF00BF08BD001002402DE9F04177
:101D000004460D46002700BF94F83C00012802D18C
:101D10000220BDE8F081012084F83C0000BF0220D1
:101D200084F83D002068866826F0770626F47F4612
:101D3000206886602868502833D00CDC202850D0DA
:101D400004DC00284BD0102851D149E0302849D07C
:101D500040284CD139E060282DD0702807D0B0F54C
:101D6000805F03D0B0F5005F41D10DE041E0D5E9DF
:101D700002136A68206801F0ACFB2068866846F0B0
:101D800077062068866034E0D5E902136A68206827
:101D900001F09FFB2068806840F4804021688860E3
:101DA00027E0EA686968206801F064FC5021206837
:101DB00001F09AFB1DE0EA686968206801F06DFC9B
:101DC0006021206801F090FB13E0EA6869682068F0
:101DD00001F050FC4021206801F086FB09E000BFC3
:101DE00000BF00BF2968206801F07EFB01E00127E9
:101DF00000BF00BF012084F83D0000BF002084F830
:101E00003C0000BF384684E710B586B00446002089
:101E100002900390049005902068B0F1804F17D194
:101E200000BF0C48806940F004000A4988610846F8
:101E3000806900F00400019000BF00BF0320029001
:101E4000022003900120059002A90348FEF71CFF21
:101E500006B010BD00100240000801402DE9F0411D
:101E600004460D461646002700BF94F83C000128A2
:101E700002D10220BDE8F081012084F83C0000BFBF
:101E800036B1042E1BD0082E31D00C2E5ED145E089
:101E90002946206801F032FB2068806940F0080084
:101EA000216888612068806920F0040021688861C9
:101EB00020688069296908432168886148E02946CB
:101EC000206801F04BFB2068806940F400602168C5
:101ED00088612068806920F48060216888612068BA
:101EE0008069296940EA01202168886130E029463B
:101EF000206801F067FB2068C06940F00800216895
:101F0000C8612068C06920F004002168C8612068A9
:101F1000C069296908432168C86119E02946206819
:101F200001F084FB2068C06940F400602168C8614A
:101F30002068C06920F480602168C8612068C06999
:101F4000296940EA01202168C86101E0012700BF3A
:101F500000BF00BF002084F83C0000BF384689E77E
:101F600010B504460CB9012010BD94F83D0028B905
:101F7000002084F83C00204600F025F8022084F878
:101F80003D00211D206801F051FA012084F846002F
:101F900000BF84F83E0001213F200155402001553B
:101FA0004120015500BF00BF012084F842004320BA
:101FB0000155442001554520015500BF012084F8FA
:101FC0003D000020D0E7704770B504460D4615B9B6
:101FD00094F83E000BE0042D02D13F20005D06E0A6
:101FE000082D02D14020005D01E04120005D012864
:101FF00001D0012070BD1DB9022084F83E000EE022
:10200000042D03D102213F20015508E0082D03D102
:1020100002214020015502E0022141200155012208
:102020002946206801F044FA19492068884201D104
:10203000012000E0002028B12068406C40F40040FE
:10204000216848641249206888420BD02068B0F1AA
:10205000804F07D00F492068884203D00E4920687E
:1020600088420CD12068806800F00706062E0CD04C
:102070002068006840F001002168086005E02068E1
:10208000006840F00100216808600020B2E700000D
:10209000002C01400004004000080040704770B56B
:1020A0000446002520684069C0F3C01594F841003B
:1020B000212817D1B5B100BF00BF2168143151E804
:1020C000001F21F080002168143141E80002002A3D
:1020D000F3D100BFA06B10B1A06BFEF701FC20464E
:1020E00001F0D3FB20684069C0F3801594F84200EA
:1020F000222817D1B5B100BF00BF2168143151E8C3
:10210000001F21F040002168143141E80002002A3C
:10211000F3D100BFE06B10B1E06BFEF7E1FB2046AE
:1021200001F06DFB002070BD704700002DE9F84FF5
:102130000446206805682068C668206847694FF033
:102140000009CA4605F00F09B9F1000F0AD105F0E0
:10215000200038B106F0200020B1204601F0A8FB95
:10216000BDE8F88FB9F1000F7BD007F0010018B976
:1021700006F49070002874D005F0010030B106F428
:10218000807018B1606C40F00100606405F00400DC
:1021900030B107F0010018B1606C40F002006064DB
:1021A00005F0020030B107F0010018B1606C40F09A
:1021B0000400606405F0080048B106F0200010B982
:1021C00007F0010018B1606C40F008006064606CBA
:1021D000002845D005F0200028B106F0200010B1FD
:1021E000204601F065FB20684069C0F3801A606CEE
:1021F00000F0080010B9BAF1000F2CD0204601F011
:10220000FEFA2068406900F0400000B300BF00BF44
:102210002168143151E8001F21F040002168143179
:1022200041E80002002AF3D100BFE06B50B17748CB
:10223000E16B4863E06BFEF77FFB88B1E06B416BBD
:1022400088470DE02046FFF76FFF09E009E02046D0
:10225000FFF76AFF04E02046FFF766FF0020606496
:102260007EE7206B012877D105F01000002873D09D
:1022700006F010000028FAD000BF0020009020686F
:102280000068009020684068009000BF00BF206890
:10229000406900F0400000285FD0E06B00684068B3
:1022A0001FFA80F8B8F1000F55D0A08D404552DDDF
:1022B000A4F82E80E06B8069202843D000BF00BFC7
:1022C00021680C3151E8001F21F4807021680C3125
:1022D00041E80002002AF3D100BF00BF00BF21681F
:1022E000143151E8001F21F001002168143141E848
:1022F0000002002AF3D100BF00BF00BF21681431E3
:1023000051E8001F21F040002168143141E800022B
:10231000002AF3D100BF202084F84200002020636F
:1023200000BF00BF21680C3151E8001F21F01000F0
:1023300021680C3141E80002002AF3D100BFE06BB4
:10234000FEF7CEFA02206063A08DE28D801A81B282
:102350002046FFF7A3FE03E742E0A08DE18D401A7F
:102360001FFA80F8E08DD0B3B8F1000F37D000BF6E
:1023700000BF21680C3151E8001F21F490702168E2
:102380000C3141E80002002AF3D100BF00BF00BFBA
:102390002168143151E8001F21F001002168143137
:1023A00041E80002002AF3D100BF202084F8420057
:1023B0000020206300BF00BF21680C3151E8001FDE
:1023C00021F0100021680C3141E80002002AF3D10D
:1023D00000BF0220606341462046FFF75FFEBFE674
:1023E00005F0800030B106F0800018B1204601F001
:1023F000BFFBB5E605F0400030B106F0400018B173
:10240000204601F032FAABE600BFA9E6C336000869
:1024100010B504460CB9012010BDA06900B100E060
:1024200000BF94F8410028B9002084F840002046FD
:1024300000F02AF8242084F841002068C06820F4C5
:1024400000502168C860204601F0B0FA2068006999
:1024500020F49040216808612068406920F02A003B
:10246000216848612068C06840F400502168C86055
:1024700000206064202084F8410084F8420000209D
:10248000606300BFC8E7000010B586B004460020B6
:1024900002900390049005907349206888426FD1A0
:1024A00000BF7248806940F48040704988610846E6
:1024B000806900F48040019000BF00BF00BF084663
:1024C000806940F0040088610846806900F00400DB
:1024D000019000BF00BF4815029002200390032026
:1024E000059002A96248FEF7CFFB4FF4806002908E
:1024F00000200390049002A95D48FEF7C5FB5D48EB
:102500005D4908600020486000215B4881608021AF
:10251000C16000210161416181614FF40051C161DD
:10252000FEF730FB08B1FEF7B2F800BF5248E06397
:10253000446200BF4F48143850490860102048607A
:1025400000214E4881608021C1600021016141610C
:1025500081614FF40051C161FEF714FB08B1FEF731
:1025600096F800BF4548A063446200BF00221146B0
:102570002520FEF775FF2520FEF762FF72E0FFE7DA
:102580003F49206888426DD100BF3848C06940F497
:1025900000303649C8610846C06900F40030019037
:1025A00000BF00BF00BF0846806940F0040088619A
:1025B0000846806900F00400019000BF00BF0420BD
:1025C0000290022003900320059002A92848FEF7FC
:1025D0005BFB0820029000200390049002A924488D
:1025E000FEF752FB2348143026490860002048605B
:1025F0000021244881608021C16000210161416186
:1026000081614FF40051C161FEF7BCFA08B1FEF7D9
:102610003EF800BF1B48E063446200BF1548283005
:102620001949086010204860002117488160802106
:10263000C16000210161416181614FF40051C161BC
:10264000FEF7A0FA08B1FEF722F800BF0E48A0631B
:10265000446200BF002211462620FEF701FF26201B
:10266000FEF7EEFE06B010BD00380140001002403B
:10267000000801405800024054170020981700201D
:1026800000440040DC1700202018002070B50446EC
:102690000D46164694F8420020280BD105B10EB91C
:1026A000012070BD0020206332462946204601F0FB
:1026B000FBF9F6E70220F4E770477047704700BF68
:1026C000FEE7014608684069C0F38020B0B16FF4AE
:1026D00080600A68506100200863202081F83D0076
:1026E000002081F83E00086C40F00400086400BF40
:1026F000002081F83C0000BF012070470020FCE76B
:102700002DE9F8430446884615469946DDE90867F1
:102710002068006840F48070216808603346002219
:102720004FF001112046009700F08DF860B120684D
:10273000006800F48070B0F5807F02D14FF4007023
:1027400020640320BDE8F88308F0FE0021680861DA
:102750003B4632462149204600F0D4F808B101201A
:10276000F0E700BF002000902068406900902068DA
:102770008069009000BF00BF3A463146204600F015
:102780003EF950B1206C042805D12068006840F45F
:102790000070216808600120D4E7B9F1010F03D16E
:1027A000E8B22168086117E0C5F3072021680861D5
:1027B0003A463146204600F022F950B1206C0428F8
:1027C00005D12068006840F400702168086001208D
:1027D000B8E7E8B2216808610020B3E70200010011
:1027E00070B504460D46164625E02046FFF769FF02
:1027F00008B1012070BD681CE8B1FEF7D5FB801B55
:10280000A84200D8BDB920684069C0F3800090B9E3
:1028100000202063202084F83D00002084F83E0042
:10282000206C40F02000206400BF002084F83C00B1
:1028300000BF0120DEE720684069C0F38000002867
:10284000D3D00020D6E72DE9F04104460D461746C7
:102850001E46DDF8188038E0701CA8B3FEF7A4FB14
:10286000A0EB0800B04200D876BBC5F307400128B2
:102870000AD120684069A9B20840A9B2884201D1B2
:1028800001200BE0002009E020688069A9B208401F
:10289000A9B2884201D1012000E00020B84214D141
:1028A00000202063202084F83D00002084F83E00B2
:1028B000206C40F02000206400BF002084F83C0021
:1028C00000BF0120BDE8F081FFE7C5F30740012804
:1028D0000AD120684069A9B20840A9B2884201D152
:1028E00001200BE0002009E020688069A9B20840BF
:1028F000A9B2884201D1012000E00020B842ABD04B
:102900000020DFE72DE9F04104460D4616461F463C
:1029100058E020684069C0F38020E8B12068006872
:1029200040F40070216808606FF48060216848619D
:1029300000202063202084F83D00002084F83E0021
:10294000206C40F00400206400BF002084F83C00AC
:1029500000BF0120BDE8F081701C90B3FEF724FB9E
:10296000C01BB04200D866BBC5F3074001280AD19E
:1029700020684069A9B20840A9B2884201D101206B
:102980000BE0002009E020688069A9B20840A9B2E4
:10299000884201D1012000E0002090B9002020638E
:1029A000202084F83D00002084F83E00206C40F098
:1029B0002000206400BF002084F83C0000BF0120FC
:1029C000C8E7FFE7C5F3074001280AD1206840693E
:1029D000A9B20840A9B2884201D101200BE0002031
:1029E00009E020688069A9B20840A9B2884201D1F3
:1029F000012000E0002000288BD00020AAE770B55D
:102A000004460D46164625E02046FFF75AFE08B15B
:102A1000012070BD681CE8B1FEF7C6FA801BA84211
:102A200000D8BDB920684069C0F3C01090B900203B
:102A30002063202084F83D00002084F83E00206CB4
:102A400040F02000206400BF002084F83C0000BF5C
:102A50000120DEE720684069C0F3C0100028D3D011
:102A60000020D6E713B584B004460A20012105AA48
:102A70000B46CDE900210290224678210248FEF75C
:102A800081FB06B010BD00002816002008B500BF6D
:102A90001648406940F00100144948610846406901
:102AA00000F00100009000BF00BF002211460E2080
:102AB000FEF7D6FC0E20FEF7C3FC002211460F20C5
:102AC000FEF7CEFC0F20FEF7BBFC002211461020C3
:102AD000FEF7C6FC1020FEF7B3FC002211461120C1
:102AE000FEF7BEFC1120FEF7ABFC08BD0010024053
:102AF00008B500BF1348806940F020001149886183
:102B00000846806900F02000009000BF00BF00BFB1
:102B10000846806940F0040088610846806900F03A
:102B20000400009000BF00BF00BF0846806940F06D
:102B3000080088610846806900F00800009000BF26
:102B400000BF08BD0010024010B50B480B490860DB
:102B50000B484860002109488160C1604FF4804102
:102B60000161002141618161C1610162FEF722FAC8
:102B700008B1FDF78CFD10BD00580040281600205C
:102B8000801A060000B58DB0002009900A900B90C5
:102B90000C90079008901C216846FDF7CCFA4FF086
:102BA00080402449086040F2CF204860002121483D
:102BB000816040F2CF71C160002101618161FFF746
:102BC00053F808B1FDF763FD4FF48050099009A94F
:102BD0001848FFF793F808B1FDF759FD1548FFF7BE
:102BE000BFF908B1FDF753FD00200790089007A931
:102BF0001048FEF7F7FF08B1FDF749FD602000908F
:102C00000020019002900490002269460948FFF7D5
:102C100025F908B1FDF73BFD042269460548FFF799
:102C20001DF908B1FDF733FD0248FFF7EDF80DB0CF
:102C300000BD00007C16002010B50B480B49086051
:102C40004FF4E1304860002108488160C1600161B3
:102C50000C21416100218161C161FFF7D9FB08B1FD
:102C6000FDF715FD10BD000000380140C41600201E
:102C700010B50B480B4908604FF4E1304860002163
:102C800008488160C16001610C21416100218161BE
:102C9000C161FFF7BDFB08B1FDF7F9FC10BD0000F5
:102CA000004400400C17002000BFFEE700BFFEE715
:102CB00070B5002415E004F1B001C8B200F09EFF29
:102CC000002000F09BFF102000F098FF002504E09A
:102CD000002000F09AFF681CC5B2802DF8DB601C54
:102CE000C4B2082CE7DB70BD00200CE0002106E038
:102CF0000022064B03EBC0135A544A1C91B28029A0
:102D0000F6DB411C88B20828F0DB7047E41800208D
:102D10002DE9FC5F04460D4616461F46002C01DADD
:102D2000002004E0802C01DB7F2000E0204682466A
:102D3000A019002801DA002005E0A019802801DD93
:102D4000802000E0A0198346002D01DA002004E075
:102D5000402D01DB3F2000E028460190E8190028C3
:102D600001DA002005E0E819402801DD402000E0FC
:102D7000E8190090D04610E0DDF8049008E00FFA62
:102D800089F10FFA88F00C9A00F090F809F1010926
:102D900000988145F3DB08F10108D845ECDBBDE87C
:102DA000FC9F10B5AE2000F029FF202000F026FF88
:102DB000102000F023FFB02000F020FFC82000F01A
:102DC0001DFF002000F01AFF102000F017FF402028
:102DD00000F014FF812000F011FFFF2000F00EFF33
:102DE000A12000F00BFFA62000F008FFA82000F0B3
:102DF00005FF3F2000F002FFA42000F0FFFED320DB
:102E000000F0FCFE002000F0F9FED52000F0F6FEF8
:102E1000F02000F0F3FED92000F0F0FE222000F0B8
:102E2000EDFEDA2000F0EAFE122000F0E7FEDB20E3
:102E300000F0E4FE202000F0E1FE8D2000F0DEFE38
:102E4000142000F0DBFEAF2000F0D8FEFFF730FFCB
:102E500010BD10B58D2000F0D1FE142000F0CEFE84
:102E6000AF2000F0CBFE10BD70B5022418E004F1D5
:102E7000B001C8B200F0C2FE002000F0BFFE10207A
:102E800000F0BCFE002507E0074901EBC411485DD6
:102E900000F0BBFE681C85B2802DF5DB601C84B29F
:102EA000052CE4DD70BD0000E4180020F0B50346F9
:102EB0001446002B3DDB802B3BDA002939DB40290F
:102EC00037DADCB1CD1701EB5575ED10194E06EB75
:102ED000C515ED5C0A46CE1701EB5676F610A1EB50
:102EE000C6070126BE4035430846CE1701EB56768D
:102EF000F610104F07EBC616F5541AE0CD1701EB8C
:102F00005575ED100B4E06EBC515ED5C0A46CE1758
:102F100001EB5676F610A1EBC6070126BE40B5437D
:102F20000846CE1701EB5676F610024F07EBC61691
:102F3000F554F0BDE41800202DE9F04104460E469A
:102F4000154614B90020BDE8F081216C6164E16B85
:102F50002164A561E66131462846FDF749F9E06341
:102F6000207800284DD1E16B6068FDF747F9606279
:102F7000E16BA068FDF742F90746A16AFDF7E6F8A4
:102F8000A062616BA163216B6163D4E90F01FDF75E
:102F90002FF92063216BE068FDF730F9E062616989
:102FA000A06AFDF7C7F902D26069A0620BE0606910
:102FB00080F000473846A16AFDF7BCF903D260698A
:102FC00080F00040A062D4E90901FDF7BFF8074690
:102FD000E16AFDF7BBF820622169206AFDF7AAF9D2
:102FE00002D22069206255E0206980F0004738460F
:102FF000216AFDF79FF94DD2206980F000402062E0
:1030000048E02078012845D1D4E90F01FDF7F0F818
:1030100007466168FDF7F2F86062E16BA068FDF7B2
:10302000EDF8A062616BA163216B61634FF080409A
:10303000216CFDF7E3F88046E16BFDF7DCF807460D
:10304000616CFDF783F82063216BE068FDF7D6F82B
:10305000E062D4E90901FDF779F88046E16AFDF7FD
:1030600075F80746216AFDF771F820622169206A28
:10307000FDF760F902D2206920620BE0206980F040
:1030800000473846216AFDF755F903D2206980F0E0
:1030900000402062206A56E700B97047002242646F
:1030A0000264C2638263426302630021C16281627F
:1030B000416201628161C16100BFEEE770B5049CAD
:1030C00000B102B970BD0170156845605568856032
:1030D0009568C560036144610026866346630663A4
:1030E000C6628662466246640664C66300BFE9E75C
:1030F00070470000F8B5044620680068C0F300106F
:1031000000283CD000BF002000902068006800909C
:1031100020684068009000BF00BF2046FEF7BFFF58
:10312000E06B00684068C0F1800085B20726072D7B
:103130001BD3E81F16E01249095C5A2911D1811DE1
:103140000F4A515CED290CD1114601440D4A0B6820
:1031500013608B8893808979917101210A4A1170DB
:1031600002E0401E0028E6DA00BF80210448FCF798
:10317000E2FF802202492046FFF788FA00BFF8BD2F
:1031800064180020241500202B15002010B50446DB
:103190000020074908702068C06840F010002168CE
:1031A000C860802203492046FFF770FA10BD000076
:1031B0002B1500206418002001460948007868B1EA
:1031C00072B6084802680A6082888A8080798871AD
:1031D0000020034A107062B6012070470020FCE70F
:1031E0002B1500202415002008B508490968C908D6
:1031F0004FF47A72B1FBF2F14143009100BF00BF7E
:1032000000994A1E00920029F9D108BD201500201E
:1032100010B5FFF71EFEFFF767FDFDF7CAF9FFF7D0
:1032200023FE10BD10B527480068322806D3FFF7EB
:103230005BFDFDF77AF9FFF717FE10BDFFF754FDB0
:1032400021480078062810D2DFE800F00F03100CA8
:103250000609FDF77CF92FE0FDF7E7F92CE0FDF713
:10326000BAF929E0FDF761F926E000BF17480078B8
:1032700088B9FDF799FE16490968401AB0F57A6FCA
:1032800006D9012011490870FDF78EFE104908602B
:10329000FDF78FF90FE0FDF787FE0D490968401A29
:1032A000782806D9002009490870FDF77DFE0849F5
:1032B0000860FDF73AF900BF00BFFFF7D5FD00BF7A
:1032C000BBE700003C1500204015002050150020F1
:1032D0004C15002070472DE9F04704460E4617466E
:1032E0001D46DDF82080266067602561C4F81480E3
:1032F0003220A061FA20E06141462846FCF726FF13
:1033000081464FF08041FCF7ABFFA060A068E06011
:10331000D4E90001FEF758FEBDE8F0872DE9FC5F17
:1033200004460E4630462169FCF7FAFF00D22669B2
:1033300030466169FCF7FEFF00D26669E660A66070
:10334000D4E90410FCF754FF8246D4E90621881A18
:10335000FCF7CDFF0090D4E90301FCF749FF834659
:103360000099FCF74BFF81465146FCF779FF8046F8
:10337000A069FCF7BCFF41460190FCF7E7FE074659
:103380003846FCF7B9FF0546606818B92068006840
:10339000456310E06068042803D1206800688563F5
:1033A00009E06068082803D120680068C56302E06E
:1033B000206800680564BDE8FC9F10B5FDF7D0FFEC
:1033C00010BD00B58FB0282105A8FCF7B4FE14216C
:1033D0006846FCF7B0FE012005900004069000202E
:1033E00007900120099002200C90C1030D914FF429
:1033F000E0110E9105A8FEF7A9F908B1FDF747F90C
:103400000F20009002200190002002904FF4806075
:1034100003900020049002216846FEF773F808B17B
:10342000FDF735F90FB000BD7047000010B5026818
:103430001C4B984208D0B0F1804F05D01A4B9842EF
:1034400002D01A4B984203D122F070024B681A4303
:10345000144B984208D0B0F1804F05D0124B9842DF
:1034600002D0124B984203D122F44072CB681A4327
:1034700022F080034C6943EA040202608B68C36255
:103480000B688362074B984201D10B6903630123E8
:103490004361036903F001031BB1036923F00103D6
:1034A000036110BD002C01400004004000080040F2
:1034B00030B501F01F05012404FA05F3046A9C43AA
:1034C0000462046A01F01F0502FA05F52C43046248
:1034D00030BD30B50C46816821F47F4142EA0325B6
:1034E00025432943816030BD0A46816821F070017F
:1034F00042F00703194381607047000030B5026A4B
:10350000056A25F0010505624368846924F07004AA
:1035100024F003040D682C4322F002028D682A4334
:103520000D4DA84206D100BF22F00802CD682A4303
:1035300022F00402084DA84207D123F4807323F43B
:1035400000734D692B438D692B43436084614D6843
:103550004563026230BD0000002C014030B5026AB4
:10356000056A25F0100505624368846924F4E04487
:1035700024F440740D6844EA052422F020028D688A
:1035800042EA05120E4DA84207D100BF22F0800288
:10359000CD6842EA051222F04002094DA84209D145
:1035A00023F4806323F400634D6943EA85038D6946
:1035B00043EA8503436084614D688563026230BDE0
:1035C000002C014030B5026A056A25F48075056259
:1035D0004368C46924F0700424F003040D682C438C
:1035E00022F400728D6842EA05220F4DA84207D1ED
:1035F00000BF22F40062CD6842EA052222F4806214
:10360000094DA84209D123F4805323F400534D6996
:1036100043EA05138D6943EA05134360C4614D68AD
:10362000C563026230BD0000002C014030B5036A62
:10363000056A25F4805505624468C26922F4E042B7
:1036400022F440720D6842EA052223F400538D688B
:1036500043EA0533064DA84204D124F480444D6961
:1036600044EA85144460C2614D680564036230BD5C
:10367000002C014030B50B461446026A056A25F05D
:1036800001050562816921F0F00141EA041122F08F
:103690000A021A438161026230BD30B50B461446FE
:1036A000026A056A25F010050562816921F47041FE
:1036B00041EA043122F0A00242EA0312816102626F
:1036C00030BD70B505466C6A0020E085E084204678
:1036D000FEF72AFD70BD70B506460025746A2068A5
:1036E0004069C0F3C01594F84100212805D125B1E7
:1036F0000020E084204600F0C8F820684069C0F34C
:10370000801594F84200222805D125B10020E085DB
:10371000204600F074F8606C40F0100060642046B1
:10372000FEF702FD70BD70B505466C6A286800683A
:1037300000F02000002842D1E08500BF00BF2168D2
:103740000C3151E8001F21F4807021680C3141E8F0
:103750000002002AF3D100BF00BF00BF216814316E
:1037600051E8001F21F001002168143141E80002F6
:10377000002AF3D100BF00BF00BF2168143151E817
:10378000001F21F040002168143141E80002002AA6
:10379000F3D100BF202084F84200206B01280ED115
:1037A00000BF00BF21680C3151E8001F21F010005C
:1037B00021680C3141E80002002AF3D100BF00204B
:1037C0006063206B012804D1A18D2046FEF766FCC2
:1037D00002E02046FEF770FF70BD70B505466C6ACA
:1037E00001206063206B012805D1A08D410820468F
:1037F000FEF754FC02E02046FEF75FFF70BD00BFFD
:1038000000BF02680C3252E8002F22F49071026867
:103810000C3242E80013002BF3D100BF00BF00BF01
:103820000268143252E8002F22F0010102681432BB
:1038300042E80013002BF3D100BF016B01290ED128
:1038400000BF00BF02680C3252E8002F22F01001C6
:1038500002680C3242E80013002BF3D100BF202194
:1038600080F8421000210163704710B504462068BB
:10387000C06820F040002168C860202084F8410022
:103880002046FEF71BFF002010BD00BF00BF0268EE
:103890000C3252E8002F22F0C00102680C3242E8DC
:1038A0000013002BF3D100BF202180F84110704796
:1038B000F8B5044694F84200222875D1A068B0F506
:1038C000805F0CD1206950B90025A66A2068406845
:1038D000C0F308003080A06A801CA06215E0A56AD1
:1038E0000026A068B0F5805F03D0A06828B92069E1
:1038F00018B920684068287004E02068406800F02B
:103900007F002870A06A401CA062E08D401E80B23B
:10391000E085002846D12068C06820F0200021689A
:10392000C8602068C06820F480702168C860206882
:10393000406920F0010021684861202084F842009D
:1039400000206063206B012826D10020206300BF87
:1039500000BF21680C3151E8001F21F010002168E0
:103960000C3141E80002002AF3D100BF2068006852
:1039700000F0100010280AD100BF0020009020683D
:103980000068009020684068009000BF00BFA18DD3
:103990002046FEF783FB02E02046FEF78DFE002066
:1039A000F8BD01E00020FBE70220F9E770B504460E
:1039B0002168096921F44051E268114322681161CC
:1039C0002269A1681143626941EA02052168C96858
:1039D00041F20C62914329432268D1602168496910
:1039E00021F44071A2691143226851612D4A216876
:1039F000914202D1FDF762FE01E0FDF74FFE00EBC0
:103A0000C00101EB001162689200B1FBF2F100EB22
:103A1000C00202EB001263689B00B2FBF3F2642366
:103A2000B2FBF3F202EBC20303EB0212A1EB820141
:103A3000322202EB01116422B1FBF2F101F0F0013C
:103A400000EBC00202EB001263689B00B2FBF3F2D2
:103A50006423B2FBF3F201EB021200EBC00101EBB5
:103A6000001163689B00B1FBF3F100EBC00303EBB3
:103A700000136668B600B3FBF6F36426B3FBF6F3F7
:103A800003EBC30606EB0313A1EB8301322303EB25
:103A900001116423B1FBF3F101F00F01114422681D
:103AA000916070BD0038014077B581B0044615467D
:103AB0000298A062A58500206064222084F842005C
:103AC0002848E16B88622848E16BC8622748E16BAF
:103AD00008630020E16B486302AE32682368191D59
:103AE0002B46E06BFDF782F800BF002000902068B5
:103AF0000068009020684068009000BF00BF206907
:103B000070B100BF00BF21680C3151E8001F41F4C3
:103B1000807021680C3141E80002002AF3D100BF17
:103B200000BF00BF2168143151E8001F41F00100BF
:103B30002168143141E80002002AF3D100BF00BF20
:103B400000BF2168143151E8001F41F04000216896
:103B5000143141E80002002AF3D100BF002004B074
:103B600070BD000027370008DB370008D736000893
:103B7000014691F84100212828D18868B0F5805F7E
:103B80000BD1086948B90A6A1088C0F308000B68AD
:103B90005860086A801C086205E00B6A581C0862BD
:103BA00018780B685860C88C401E80B2C88458B919
:103BB0000868C06820F080000B68D8600868C0689A
:103BC00040F040000B68D860002070470220FCE7FE
:103BD00010B50348FFF78EFA0148FEF7A7FA10BDAB
:103BE000C416002010B50348FFF784FA0148FEF719
:103BF0009DFA10BD0C17002000BFFEE710B504466B
:103C000021460020FEF72EFF10BD10B504462146C8
:103C10004020FEF727FF10BD4100080218BF042016
:103C20000A0E18BF40F001004FF07F4232EA010156
:103C300008BF40F00200012808BF052070470000BF
:103C400002480068C0F30220704700000CED00E05D
:103C500010B5002804DB0A07130E054A135406E0CA
:103C60000A07140E034A00F00F031B1FD45410BDA3
:103C700000E400E018ED00E00121FCF7E5BB0021C5
:103C80000846FCF7EDBA6FF05E010807FCF7DCBBF5
:103C90002DE9F04D0D4614464FF07F41B1EB440F36
:103CA0009EBF4FF0FF312960BDE8F08D4FF000401E
:103CB00040EA0421C4F3C750783810F01F024A4B81
:103CC0004FEA601CC2F120067B44C4F3C750A0F148
:103CD00078004FEA601003EB800053F82C3008BFE7
:103CE000D0E901C612D0D0F804C093402CFA06F7F0
:103CF0003B4387680CFA02FC27FA06F8C06807FA0B
:103D000002F2F0404CEA080C42EA0006A3FB013242
:103D1000ACFB01C0A6FB016101EB0C068E4234BF77
:103D20004FF0010C4FF0000CC1186144BCF1000FC2
:103D300002D0814202D903E0814201D2012000E099
:103D40000020104400F120024FEA92188006CA0CAD
:103D500040EA42304F03C5F80080FCF7BFFA8246C4
:103D60003846FCF7C4FA6FF01201FCF76DFB07460A
:103D70003046FCF7BCFA6FF02501FCF765FB834683
:103D800039465046FCF7E2F95946FCF7DFF900F5F1
:103D900000666FF30B0651463046FCF729FA3946A8
:103DA000FCF726FA5946FCF726FA1049FCF726FAE2
:103DB00007460F493046FCF721FA3946FCF7C6F9A9
:103DC00007460C493046FCF719FA3946FCF7BEF9AC
:103DD00014F0004F08BFBDE8F08DC8F1805180F0AD
:103DE00000402960BDE8F08D0C040000DB0FC92FF6
:103DF00022AAFD290000C92F02E008C8121F08C12D
:103E0000002AFAD170477047002001E001C1121F5B
:103E1000002AFBD17047000001490860704700008C
:103E20005415002008B5FDF7A7FAFFF7CAFAFEF708
:103E30005FFEFEF72BFEFEF7A5FEFEF7FDFEFEF78A
:103E400017FFFEF781FE294800231A4628490090F3
:103E50002848FFF740FA28492648FFF75FFA234829
:103E6000264B0422224900902548FFF734FA2549C1
:103E70002348FFF753FA2448FFF788F94FF07E50A4
:103E80004FF08043214A002100902148FFF716F9A6
:103E90004FF07E504FF080431E4A002100901E4894
:103EA000FFF70CF9FEF77DFFFFF7B2F91648FFF7B1
:103EB0006DF9FDF779F8FDF777F815E0FDF774F87F
:103EC000044616480068201A0A2803D313480460E1
:103ED000FCF7E0FB12480068201A322803D3104890
:103EE0000460FFF79FF900BFE8E7000000003443DB
:103EF0007C160020581500200000A04200007042EF
:103F0000781500200000F042C4160020F4140020B0
:103F10009815002000150020E01500200C15002049
:103F2000101500202DE9F843044602465248694620
:103F3000B0EB420F09D94FF0E640B0EB420F94BF0F
:103F400000204FF0FF30009030E04C4B22F000405A
:103F5000834271D94A492046FCF750F9FCF72BFA05
:103F60008046FCF746FA00F00300009045494046C1
:103F7000FCF744F9054644494046FCF73FF906463C
:103F800042494046FCF73AF9074641494046FCF7AA
:103F900035F92146FCF72FF93946FCF729F9314666
:103FA000FCF726F92946FCF723F904462546009C30
:103FB000002C45DB294614F0010F08461ED0FCF703
:103FC0001DF905463349FCF719F93349FCF7BEF8EA
:103FD0002946FCF713F93149FCF7B8F82946FCF7F4
:103FE0000DF94FF07E51FCF7B1F814F0020F08BF45
:103FF000BDE8F88380F00040BDE8F883FCF7FEF8E8
:1040000006462749FCF7FAF82649FCF7F4F831464A
:10401000FCF7F4F82449FCF799F83146FCF7EEF880
:104020002946FCF7EBF82946FCF790F814F0020F4C
:10403000E0D1BDE8F883FFE71046FFF729FEB4E7BB
:104040006800B0F17F4F09D22846FFF7E5FD04284C
:1040500008BFFFF718FE2846BDE8F88306D1012007
:10406000FFF7DAFEBDE8F843FFF709BE2846BDE8D2
:10407000F843FFF701BE0000B61F927E490E494685
:1040800083F9223F1A61342C0020A23300A0FD39AD
:104090000000C93FB93AB2BACA9F2A3DDDFFFFBE50
:1040A000336D4C39DA82083CA0AA2ABE020304050B
:1040B000060708090A0B0C0D0E0F10100102000074
:1040C00000000000000001020304060708090000C8
:1040D0000000010203040000000000006E83F9A24A
:1040E0002915444ED15727FCC0DD34F5999562DB84
:1040F0004190433CAB6351FE184100080000002092
:104100005815000060040008704C00085815002085
:10411000900B0000083E000891422F1A0702111B65
:10412000147F021116242A7F2A12166264081323B0
:10413000263649552250430503341C22411C412296
:104140001C2A15083E08141A0806320823A0602A03
:104150000801211A600B11162010080402263E5196
:1041600049453E1C427F4005156151494616214193
:10417000454B31161814127F101627454545391640
:104180003C4A4949301C0171096216364949493691
:1041900026064949291E4336362A56062B08147826
:1041A0002A1401297E131408160201510906163239
:1041B0004959513E167C1211127C3A7F3C163E4101
:1041C0004141221A7F053A1C1212411E7F0909093A
:1041D00001181449497A1A7FA11A7F421A7F4E1E8C
:1041E0002040413F0112295B1B7F400111167F02D5
:1041F0000C027F3E7F0408107F483A3E3C1A060CB2
:104200001C51215E0C141929461A4654123116010C
:10421000017F01011A3F35123F1E1F2040201F0C55
:104220001A380C1663140814631607087008071967
:10423000EF234543198B211B552A0219781A417D1A
:1042400016040201020429712240290B1116205480
:10425000545478167F484444382E38444444200649
:1042600013487F1A3818121816087E0901021D1803
:10427000A4A4A4E425080404781B447D3B1D4080CD
:10428000847D5F341028441B417F121C7C04181E5F
:104290003A7C242948123816FC242424181A1805BC
:1042A0003AFC1812081A4854122016043F444020C1
:1042B000163C4040207C1A1CC01A1C0C1430403C98
:1042C0002B44284F161CA0A0A07C3F4464544C44AF
:1042D0001401011372F84333301C100C0603912CA7
:1042E00040C0780319672A0403212D7088FC08292F
:1042F000261820FF211E14F008F033E0184D211C71
:10430000031E11338870000C101E2123241927214D
:104310001010160E45E01804021C071820EA3D0292
:104320000418E0692C20180707174080F0804040EF
:104330003F0202010F01022842F01D0101011F048A
:10434000912B80B066B1191D2901913A30CE492CCC
:10435000146018043C6018061D1EE0100808107256
:104360001F0F102020100FF05310F83620203F2090
:10437000203C700808C21E3028242221441E300828
:10438000888848082E1820202011CC3BC0203227D6
:10439000070424243F241AF8202308084B1921205D
:1043A00036E0108888184B0F11101E380808C838DE
:1043B0002021523F1A702E29608F1C222121221C9D
:1043C00090111D31222211901961CAC0C26A80C6A3
:1043D00059081C40201050170102040810204A40C0
:1043E00001114A04012119152A403219251B040222
:1043F000F21B7048D13AF0501A360F1EC030C82850
:10440000E87028080718272423140B6F2A387E2801
:104410000D203C23020227382008F888889F4B2073
:104420003FF01BC0303F1B083830191019781B08AB
:10443000F80F194039201B100F103E8888E808102B
:1044400010AC23201810112A035E2940223829407D
:104450002C221E024019A41809F808203F2101014E
:1044600021252A0852298129424149112EC08080E4
:10447000807F0E2FF888C0281808501C0126382F7E
:104480002940292F29801B20301012F81AF8141304
:10449000203F190229204B30C0601A2074123F4B74
:1044A000E010B06B0F10B029D01AF0301980220143
:1044B00079203F18242438504FC04C888870C0148D
:1044C0000C30204B7088C11738202121221C3A184B
:1044D0009F4A188239A049D0112A1F90121F240820
:1044E00078881BC838151C07380E60191A1AF8206E
:1044F0001114033C0714073C034814081868808013
:1045000068180820302C03032C30200838C82F5995
:1045100050298F29102F203826212020681145FE90
:10452000020202257F4040401A0CE0611C0106385F
:104530000B191D42FE191D527F1A04120211045A52
:1045400080011930D91D3916211808192422222278
:104550003F20AB390F115F3F112020110E21311A7E
:104560000E104B2011104B88F8102A10B359401A26
:104570001F3F2B22130F16F0888888181A20D02985
:10458000D1497A21176B94949493603960190F4C38
:10459000203F21F354809898793059121AC0271976
:1045A000D1193039311F203F24022D30212A081221
:1045B000893069D7294B2903190BC96079A019BF24
:1045C0002B201FDD390F9C80FFA1E0191229D03B61
:1045D000A0FF0C3950194112208A01C01B3324015D
:1045E0002A190F3AE0413952290F392349603C100A
:1045F0003F202C29053F010E300806017029103894
:10460000080F300C030C300F2C49A14E312E0E3107
:10461000200C29621D818E70183059D1215721300C
:104620002C22213055807C0202443F404072FF39E9
:10463000083C02027C8F5440403F80080601010282
:104640000204041A3F51300EEE888888E88F0888EB
:1046500078484E40C01A7FCA127F18088140300F38
:1046600030418022517501E21CE037804020100C5F
:104670000319B21A408C123F2C1010900118091027
:1046800010FF1010111610BE1F60203F10101022D6
:104690001D102040F8221808403011969090910487
:1046A0001698141350302A04013E44847E06050AED
:1046B00029661F0202021222C206440202FE1C08E0
:1046C00018081A5D02024181BBA1280D804040C03C
:1046D000A0606060A0C04040DE021B021AC08F18BC
:1046E00009300C0281E0F0F8FC011AFE042FF8F802
:1046F000F1E2043039410212401311401B0F60D91E
:10470000DAFF013B600F6F714204A22028160102FC
:104710000810428404091317170F1F6F1F1F1F0F64
:104720000707039E1644489062989CE408203D29A0
:104730003011720559C0180C01184004282098A4A3
:10474000A4184013160A04030CC03C4080016819E9
:104750006F0217081A0102197A111808083848055B
:10476000241E099819F30115100A8080C0C0E46066
:104770002020205F444480081020CEC997B138081B
:10478000308CC2E1E3F1F0011BE0C0276D010204AF
:10479000302E0A138038CC077EFF0122FC6CB070EB
:1047A0004F2C49EA59D2B12E0387070F1F01163F3C
:1047B0009F1F1F0B2B04032500081A080140221419
:1047C00008E03C020810C31009010926B020C0A06F
:1047D00080144108053D08050308150B1804083925
:1047E000612A01031780080829260E12091A0518E4
:1047F000021584148040402A200111500840448052
:10480000081020400A170860580AB09CCEC7C1C1E2
:10481000C0C0C0F6114809010204308102041039F9
:10482000111A80DDF18C0F7FFF014BFCF027BBECF0
:104830000F86190201103E0307070F1F0120087F92
:10484000931008040403A80910214082442810A0F2
:10485000EAF96F71180A071C70A0E0800292123703
:104860006609060308C059E1011219C34A208513DD
:1048700001041608082F221E120942050214102EE8
:10488000804040402001110B104040BC0112D53047
:104890007C8E818E0102C430C07511CB6020301235
:1048A000804C0F7FFF016DFEFCF8E0772CE22F209B
:1048B000C31A01390912C51308103E0307070F1F59
:1048C00001881210F010080404032042060C38E09E
:1048D000C1020490FC6A06860112680F06102018B7
:1048E000A4A41801060810010D0779495F01166993
:1048F000C3130102680804182422110108AE796864
:104900009128108080404424242022202044448088
:104910000810CC41021884CC70EC02A4FE051B04E4
:1049200018C056B922BF7CFCF8F8F0E025CC80E036
:104930001F25011228080107070F0F1F1001380853
:10494000F090083874C281165C0408104A39AC73C0
:1049500002022C0820180F5C04106058780F07160C
:104960003870F0838F9428080814C6196DF3010479
:1049700043083019397A2023000B19020404280453
:104980002303110E452E80C04040200128096044B9
:10499000C4840810204C610B1708082F9D301C1E82
:1049A00001DC480C0102050A0C30C1020C1060AD9C
:1049B000031180057B0F70B589488CF04F40CB11F7
:1049C000021340100803040C08101010180930A03E
:1049D00030D00804020277000A1203061C38E1E214
:1049E0009C08E079F5195C293D100C1860073E28F9
:1049F000B0C080A010089F048A04030CC02CB96FBB
:104A00003C1824286E1C1860808A1A0103200D02AD
:104A10000408384847261E090904021903011368CF
:104A20000D80404040202060A02060C0C0C9031A13
:104A300020302B700CC1711809053FFFFFFFFEFCF1
:104A4000F8941B10204A4199A0711C0730C093B103
:104A50004F010307876F0F0B1A043961F2104819D1
:104A60000304050808101010906030101018481446
:104A70004201092042844830F559850217081C027A
:104A8000081028180C018489640C9221020C010A78
:104A90009709122CE9142A0159080C130102043950
:104AA0004A3C22120108079A4119EEB80AC0E06098
:104AB0006020A0C0C0C0DD01175C300C02B3113B08
:104AC000FEFF011CFEFCF0396A034FE93012809BA7
:104AD0000F6059800B030F0F1F1F3F3FBF7F0F6BEE
:104AE00020805161294219F71113030410110E148B
:104AF00018109060203090D00804048201014E828A
:104B0000440810C0E13C040B202A514906A1180EAC
:104B10000204104081071CB0F0018C08632D117A4B
:104B2000185BEA012CE1198C19221204071A1824C7
:104B300020120109101380C0C0C024202020A0C072
:104B4000C4C4800810204080021C0617300C0207E5
:104B500003015DE0FCFEFF0145FEFCF08002180849
:104B60003B076020116D031F3F7F3594FFFF8F02CD
:104B700016101582040408280D10181810201010A3
:104B800011090504034397040AA4E810C0F3020CBA
:104B90003D020410206E180B042040231820808052
:104BA0000A41FDB708840308A002B97339B929394D
:104BB000212A010313810438080830480423170907
:104BC00074895CC12E804040402001113B404071FF
:104BD000021E88380B307C0E0702C0F0F8FCFEFE87
:104BE00019014DFEFCF080AFBA065A912B076059AF
:104BF0006B0F3F313901537F8F5B0104B8011215F0
:104C000002040408280C10111123231313930B071B
:104C100007C4800802450A64C810E0021910180A87
:104C20000210400124104014A0600F1B01028804F0
:104C300007B02F296E29C2100801020201010204E7
:104C4000280908304845261A010874C138109EEF1B
:104C5000A73C6F12833ACDCCCC3D0AD7A30CC51F1D
:104C600085EB3D29664201031D127A392431F2FF9A
:04000005080000ED02
:00000001FF
