:020000040800F2
:10000000A007002005010008C9230008F921000805
:10001000C52300083D0400082D3000080000000042
:10002000000000000000000000000000852600081D
:10003000AD040008000000008525000865270008C1
:100040001F0100081F0100081F0100081F01000810
:100050001F0100081F0100081F0100081F01000800
:100060001F0100081F0100081F0100081F010008F0
:100070001F0100081F010008410400085104000886
:1000800061040008710400081F0100081F01000836
:100090001F0100081F0100081F0100081F010008C0
:1000A0001F0100081F0100081F0100081F010008B0
:1000B0001F0100081F0100081F0100081F010008A0
:1000C0001F0100081F0100081F0100081F01000890
:1000D0001F01000805300008193000081F01000842
:1000E0001F0100081F0100081F010008DFF810D0E1
:1000F00000F092F900480047D5300008AFF30080C7
:10010000A00700200648804706480047FEE7FEE7B4
:10011000FEE7FEE7FEE7FEE7FEE7FEE7FEE7FEE7B7
:10012000D3270008ED00000840EA01039B0703D035
:1001300009E008C9121F08C0042AFAD203E011F826
:10014000013B00F8013B521EF9D27047D2B201E0E8
:1001500000F8012B491EFBD270470022F6E710B5CC
:1001600013460A4604461946FFF7F0FF204610BD25
:10017000F0B480EA0102D40F4200B2EB410F02D288
:100180000246084611464A0042D0C30DDDB2C1F313
:10019000C752AD1A202D35DAC1F3160141F4000221
:1001A00004B15242C5F1200602FA06F12A41104478
:1001B000B3EBD05F23D0C4B1012DA0EBC35009DC59
:1001C000F0BC4FF0004202EAC352DBB200F500007F
:1001D00000F0D5B8400000F1807000EBC350A0F1F2
:1001E000807040EAD170490009E0490841EAC071D5
:1001F000A0EBC35000F50000400800EBC350F0BC7A
:1002000000F0B4B86142012202EB4101001BF6E7A5
:10021000F0BC704781F00041AAE780F00040A7E7FA
:1002200080EA010210B502F00043400022D04A00EB
:100230001FD0010E01EB1261C0F35600C2F356024B
:1002400040F4000042F40002A0FB022000047F39C9
:10025000140400D0401C50EA124001D44000491E52
:10026000C2B20C0604EBD010401C4008802A02D019
:1002700003E0002010BD20F00100002900DA00207A
:10028000184310BD30B480EA010202F0004530F09E
:10029000004221F0004013D090B1C30DD40DC2F341
:1002A0001601C0F31600E41A41F4000140F4000204
:1002B0007D34914201D3641C00E04900002C02DA35
:1002C00030BC002070474FF400000023914201D35E
:1002D000891A034340084FEA4101F7D151B19142D5
:1002E00002D14FF0004105E002D24FF0010101E0E0
:1002F0006FF0010103EBC450284430BC00F036B865
:10030000C10F80EAE0700844CA079623002100F07C
:1003100036B896230022114600F031B820F0004094
:10032000C10DC0F3160040F400007F2901DA00205F
:100330007047962903DCC1F19601C8407047963991
:1003400088407047002801DBC0F10040002901DB34
:10035000C1F1004181427047002801DBC0F100403B
:10036000002901DBC1F10041884270470029A8BF84
:100370007047401C490008BF20F00100704710B4CE
:10038000B0FA80FC00FA0CF050EA010404BF10BC83
:10039000704749B1CCF1200421FA04F411FA0CF1B0
:1003A00018BF012121430843A3EB0C01CB1D4FEAE9
:1003B00000614FEA102042BF002010BC704700EBE4
:1003C000C35010440029A4BF10BC7047401C490012
:1003D00008BF20F0010010BC704710B541000CD0E0
:1003E000C0F3C751962908DC7E2909DC06DB4102EF
:1003F00004D000F0004040F07E5010BD002010BD41
:10040000C1F19604C4F1200100FA01F1E040FFF7C8
:10041000ADFFA04010BD0000064C074D06E0E068AF
:1004200040F0010394E8070098471034AC42F6D33B
:10043000FFF760FE483200086832000800BFFEE7A0
:1004400010B5024800F0D0F910BD000030020020C5
:1004500010B5024800F0C8F910BD0000EC01002002
:1004600010B5024800F0C0F910BD00007402002071
:1004700010B5024800F0B8F910BD0000B802002025
:1004800030B590F840500124AC40C56B6C600468F6
:1004900063604468102C04D10468A2600468E160C1
:1004A00003E00468A1600468E26030BD704772B682
:1004B00000BFFEE77CB5684602F0BAF8002878D0A5
:1004C00000207B4908609DF80100012804D0022823
:1004D00072D003286FD176E0764801684FF07D50E6
:1004E000FFF79EFE0546BDF90200FFF709FF06462D
:1004F0004FF07A51FFF794FE04462946FFF738FE85
:100500006C4908606C4801684FF07D50FFF788FE29
:100510000546BDF90400FFF7F3FE06464FF07A5199
:10052000FFF77EFE04462946FFF722FE6249086077
:100530006048006802F0C9FD04464FF08141FFF7B2
:1005400001FF02D200205B4908605B48006802F0AE
:10055000BCFD04464FF08141FFF7F4FE02D20020BB
:1005600055490860002253480168544801F02EFFA5
:1005700053490860002250480168524801F026FFA4
:1005800051490860514988684D490968FFF7F0FDF5
:10059000044621464D4802F093F84D4988684A497F
:1005A0000968FFF7E5FD04462146494802F088F84E
:1005B00061E061E000E05DE0404801F0B7FF4148E4
:1005C00001F0B4FF57E0414988684249FFF722FE35
:1005D000054602F07AFD04464FF07E51FFF7BCFE5F
:1005E00015D23A4988683B49FFF7B6FE01D23A482E
:1005F00001E04FF07E500446344988682146FFF7F9
:10060000B7FD05462946314802F05AF803E0314962
:100610002E4802F055F82E4988683049FFF7FAFD58
:10062000054602F052FD04464FF07E51FFF794FE5E
:1006300015D2274988682949FFF78EFE01D226483E
:1006400001E04FF07E500446214988682146FFF7BB
:100650008FFD054629461E4802F032F803E01F4987
:100660001B4802F02DF8154801F060FF154801F015
:100670005DFF00E000BF04E00D480068401C0C492D
:1006800008600B480068322810D30C4801F04EFF78
:100690000C4801F04BFF0F490C4802F011F80F49CC
:1006A0000B4802F00DF83220014908607CBD0000C3
:1006B0004000002030000020340000208400002092
:1006C00038000020CC0000203C0000204400002026
:1006D000640000200000A042000080BF0000F04243
:1006E0000146002291F82100022808D004208863E6
:1006F00000BF002081F8200000BF0120704708687B
:10070000006820F00E000B6818600868006820F090
:1007100001000B68186091F8403001209840CB6BC5
:100720005860012081F8210000BF002081F82000DE
:1007300000BF1046E2E7000070B50446002594F8BB
:100740002100022803D00420A063012548E020688E
:10075000006820F00E00216808602068006820F022
:100760000100216808601F492068884201D10120EA
:1007700026E01C4914312068884201D110201FE076
:10078000184928312068884201D1801518E01549A0
:100790003C312068884201D1801411E01149503168
:1007A0002068884202D14FF4803009E00D4964315D
:1007B0002068884202D14FF4801001E04FF0807031
:1007C000084908394860012084F8210000BF002052
:1007D00084F8200000BF606B10B12046616B884731
:1007E000284670BD0800024070B50446E06B0568FD
:1007F0002068066894F840100420884028400028AB
:1008000046D006F00400002842D02068006800F0BE
:10081000200028B92068006820F0040021680860E2
:1008200057492068884201D1042027E054491431F7
:100830002068884201D1402020E0514928312068B9
:10084000884201D1001519E04D493C3120688842A9
:1008500002D14FF4804011E049495031206888426C
:1008600002D14FF4802009E0454964312068884274
:1008700002D14FF4800001E04FF080604049083918
:100880004860E06A00287AD02046E16A884776E02E
:1008900094F84010022088402840A0B306F00200DF
:1008A00088B32068006800F0200040B92068006824
:1008B00020F00A0021680860012084F821003049F6
:1008C0002068884201D1022028E02D491431206897
:1008D000884201D1202021E029492831206888421E
:1008E00001D140151AE026493C312068884202D1E6
:1008F0004FF4005012E0224950312068884203D161
:100900004FF400300AE017E01D4964312068884246
:1009100002D14FF4001001E04FF00070184908397F
:10092000486000BF002084F8200000BFA06A30B3F8
:100930002046A16A884722E094F8401008208840A9
:100940002840E0B106F00800C8B12068006820F037
:100950000E002168086094F8401001208840E16B87
:1009600048600120A06384F8210000BF002084F8C3
:10097000200000BF206B10B12046216B884770BD5E
:10098000080002400146002209B901207047164BB9
:100990000868C01A1423B0FBF3F080000864124802
:1009A0000838C863022081F821000868026843F60D
:1009B000F0708243D1E901031843CB6818430B69F7
:1009C00018434B6918438B691843CB69184302439A
:1009D0000868026000208863012081F8210000205F
:1009E00081F8200000BFD1E7080002402DE9F04166
:1009F00004460D4616461F464FF0000800BF94F807
:100A00002000012802D10220BDE8F081012084F8F5
:100A1000200000BF94F8210001282CD1022084F886
:100A200021000020A0632068006820F001002168F8
:100A300008603B46324629462046FFF721FDE06A22
:100A400030B12068006840F00E00216808600BE0BB
:100A50002068006820F004002168086020680068B1
:100A600040F00A00216808602068006840F001003A
:100A70002168086006E000BF002084F8200000BF65
:100A80004FF002084046BFE770B5044600F0A0F9F9
:100A900006462546681C10B104480078054400BF8E
:100AA00000F096F9801BA842FAD370BD2000002008
:100AB0002DE9F8470346002294466EE14FF0010805
:100AC00008FA02F4D1F8008008EA0400A0427DD1BF
:100AD000DFF8DCA2D1F80480A8EB0A09D0453AD0AF
:100AE00014DCB8F1030F50D009DCB8F1000F31D09D
:100AF000B8F1010F1CD0B8F1020F49D120E0B8F1D4
:100B0000110F18D0B8F1120F42D11EE0B9F5881FAD
:100B100025D006DCB9F5803F20D0B9F5801F37D14C
:100B20001AE0B9F5001F18D0B9F5041F30D117E04D
:100B3000D1F80CC02DE0D1F80C8008F1040C28E0AD
:100B4000D1F80C8008F1080C23E0D1F80C8008F1F2
:100B50000C0C1EE000BF00BF00BF00BF00BF00BF05
:100B6000D1F80880B8F1000F02D14FF0040C0BE06F
:100B7000D1F80880B8F1010F03D14FF0080C1C61C7
:100B800002E04FF0080C5C6103E04FF0000C00E065
:100B900000BF00BFFF2801D8984601E003F1040818
:100BA0004646FF2802D84FEA820803E0A2F108086F
:100BB0004FEA88084746D6F800804FF00F0909FA37
:100BC00007F928EA09080CFA07F900E088E048EA82
:100BD0000908C6F80080D1F8048008F08058B8F100
:100BE000805F7DD100BFDFF8CC81D8F8188048F055
:100BF0000108DFF8C091C9F81880C846D8F81880F5
:100C000008F00108CDF8008000BF00BF4FEAB938F6
:100C10004FEA920958F829504FEA82784FEA18793A
:100C20004FF00F0808FA09F825EA0805DFF888816F
:100C3000434502D14FF0000816E0DFF880814345BC
:100C400002D14FF001080FE0DFF87481434502D173
:100C50004FF0020808E0DFF86C81434502D14FF005
:100C6000030801E04FF004084FEA82794FEA19794E
:100C700008FA09F848EA0505DFF84C814FEA9209BD
:100C800048F82950D1F8048008F48018B8F5801F7E
:100C90000AD1DFF83881D8F8008048EA0008DFF888
:100CA0002C91C9F8008009E0DFF82081D8F8008095
:100CB00028EA0008DFF81491C9F80080D1F8048010
:100CC00008F40018B8F5001F10D1DFF8008108F112
:100CD0000408D8F8008048EA0008DFF8F09000E047
:100CE0005AE009F10409C9F800800DE0DFF8DC8062
:100CF00008F10408D8F8008028EA0008DFF8CC9052
:100D000009F10409C9F80080D1F8048008F400381A
:100D1000B8F5003F0ED1DFF8B480A8F10408D8F888
:100D2000008048EA0008DFF8A490A9F10409C9F896
:100D300000800DE0DFF89480A8F10408D8F8008066
:100D400028EA0008DFF88490A9F10409C9F80080B6
:100D5000D1F8048008F48038B8F5803F0ED1DFF870
:100D60006C80A8F10808D8F8008048EA0008DFF88D
:100D70005C90A9F10809C9F800800DE0DFF84C800B
:100D8000A8F10808D8F8008028EA0008DFF83C90AD
:100D9000A9F10809C9F80080521CD1F8008028FA8E
:100DA00002F8B8F1000F7FF489AEBDE8F8870000C3
:100DB000000011100010024000080140000C01402A
:100DC00000100140001401400800014008040140E7
:100DD00001480068704700001800002003480068C0
:100DE0000349097808440149086070471800002049
:100DF0002000002010B50848006840F010000649A7
:100E00000860032000F0A8F80F2000F007F800F0B9
:100E10002BF8002010BD00000020024070B50446F1
:100E20000E4800784FF47A71B1FBF0F00C49096874
:100E3000B1FBF0F5284600F0F9FB08B1012070BDC8
:100E4000102C07D200222146501E00F047F805481A
:100E5000046001E00120F2E70020F0E7200000201C
:100E6000240000201C00002008B500BF1148806944
:100E700040F001000F4988610846806900F00100D8
:100E8000009000BF00BF00BF0846C06940F080501E
:100E9000C8610846C06900F08050009000BF00BFE4
:100EA00000BF0549486820F0E06040F000704860ED
:100EB00000BF08BD00100240000001400146084686
:100EC000002809DB00F01F0301229A4043099B0020
:100ED00003F1E023C3F8002100BF70472DE9F05F64
:100EE00080460D461646002702F0C4F807463946EC
:100EF0002A46334601F00700C0F1070ABAF1040F91
:100F000002D94FF0040A01E0C0F1070AD14600F10E
:100F1000040ABAF1070F02D24FF0000A01E0A0F173
:100F2000030AD4464FF0010A0AFA09FAAAF1010AA3
:100F30000AEA020A0AFA0CFA4FF0010B0BFA0CFB50
:100F4000ABF1010B0BEA030B4AEA0B0421464046C6
:100F500002F098F8BDE8F09F00BF00F00702064BD2
:100F600019684FF6FF031940044B0B4343EA022173
:100F7000014B196000BF70470CED00E00000FA055E
:100F800070B504460D460CB9012070BD5A48006882
:100F900000F00700A8420ED25748006820F0070072
:100FA0002843554908600846006800F00700A84239
:100FB00001D00120E9E7207800F0020002281DD1CD
:100FC000207800F00400042805D14C48406840F423
:100FD000E0604A494860207800F00800082805D100
:100FE0004648406840F4605044494860434840687F
:100FF00020F0F000A168084340494860207800F0E4
:10100000010078B36068012806D13C48006800F40C
:10101000003090B90120B8E76068022806D137484F
:10102000006800F0007040B90120AEE73348006866
:1010300000F0020008B90120A7E73048406820F01E
:101040000300616808432D494860FFF7C1FE06466A
:1010500009E0FFF7BDFE801B41F28831884202D9CA
:10106000032092E707E02548406800F00C00616823
:10107000B0EB810FEDD12048006800F00700A842D6
:101080000ED91D48006820F0070028431A4908605F
:101090000846006800F00700A84201D0012074E76C
:1010A000207800F00400042807D11448406820F498
:1010B000E060E168084311494860207800F00800CA
:1010C000082808D10D48406820F46050216940EAA2
:1010D000C1000A49486000F03FF808494968C1F377
:1010E0000311074A515CC840064908600648006879
:1010F000FFF794FE002048E7002002400010024065
:1011000030320008240000201C0000200148006844
:10111000704700002400002000B5FFF7F7FF0449E6
:101120004968C1F30221034A515CC84000BD000078
:10113000001002404032000800B5FFF7E7FF044905
:101140004968C1F3C221034A515CC84000BD000098
:10115000001002404032000870B500210022002437
:1011600000230020134D696801F00C05F5B1042D32
:1011700002D0082D19D101E00F4819E00F4DC1F33D
:101180008346AB5D01F4803555B10A4D6D68C5F3FA
:1011900040450B4E725D084D5D43B5FBF2F402E035
:1011A000084D03FB05F4204602E000BF024800BFE3
:1011B00000BF70BD0010024000127A001E3200080D
:1011C0002E32000800093D00F8B504460CB9012094
:1011D000F8BD207800F00100002878D0F848406879
:1011E00000F00C0004280CD0F548406800F00C001A
:1011F000082811D1F248406800F48030B0F5803FF3
:101200000AD1EF48006800F4003000285FD0606821
:1012100000285CD10120DBE700BF6068B0F5803FAB
:1012200006D1E748006840F48030E549086028E0CE
:10123000606858B9E248006820F48030E0490860EE
:101240000846006820F4802008601AE06068B0F565
:10125000A02F0BD1DA48006840F48020D8490860FC
:101260000846006840F4803008600AE0D44800680E
:1012700020F48030D24908600846006820F48020BD
:10128000086000BF606888B1FFF7A2FD054606E070
:10129000FFF79EFD401B642801D9032098E7C8484A
:1012A000006800F400300028F2D010E0FFF790FD55
:1012B000054606E0FFF78CFD401B642801D903209A
:1012C00086E7BF48006800F400300028F2D120789B
:1012D00000F00200022857D1B948406800F00C0025
:1012E00050B1B748406800F00C00082818D1B44845
:1012F000406800F4803098B9B148006800F00200FE
:1013000020B12069012801D0012061E7AC480068C4
:1013100020F0F800616940EAC100A949086033E0A3
:101320002069E8B10120A7490860FFF751FD054693
:1013300006E0FFF74DFD401B022801D9032047E7D7
:101340009F48006800F002000028F2D09C48006826
:1013500020F0F800616940EAC1009949086013E093
:10136000002098490860FFF733FD054606E0FFF7C7
:101370002FFD401B022801D9032029E7904800686F
:1013800000F002000028F2D1207800F008000828C0
:101390002DD1A069B8B101208B490860FFF718FD75
:1013A000054606E0FFF714FD401B022801D9032083
:1013B0000EE78348406A00F002000028F2D00120C6
:1013C00001F04CF913E000207F490860FFF700FDB1
:1013D000054606E0FFF7FCFC401B022801D903206C
:1013E000F6E67748406A00F002000028F2D1207843
:1013F00000F00400042873D100277148C06900F090
:10140000805070B900BF6E48C06940F080506C4990
:10141000C8610846C06900F08050009000BF00BF5E
:1014200001276A48006800F48070B0B96748006816
:1014300040F4807065490860FFF7CAFC054606E085
:10144000FFF7C6FC401B642801D90320C0E65F48B3
:10145000006800F480700028F2D000BFE068012826
:1014600006D15748006A40F001005549086227E05C
:10147000E06858B95248006A20F0010050490862FB
:101480000846006A20F00400086219E0E0680528B8
:101490000BD14B48006A40F00400494908620846F5
:1014A000006A40F0010008620AE04548006A20F046
:1014B0000100434908620846006A20F004000862FF
:1014C00000BFE068A0B1FFF783FC054609E0FFF725
:1014D0007FFC401B41F28831884202D9032077E625
:1014E00022E03748006A00F002000028EFD012E046
:1014F000FFF76EFC054608E0FFF76AFC401B41F26F
:101500008831884201D9032062E62D48006A00F044
:1015100002000028F0D1012F05D12948C06920F030
:1015200080502749C86100BFE069C8B324484068BB
:1015300000F00C00082860D0E069022848D10020A3
:1015400020490866FFF744FC054606E0FFF740FC2B
:10155000401B022801D903203AE61948006800F030
:1015600000700028F2D1206AB0F5803F07D11448FE
:10157000406820F40030A168084311494860D4E96C
:10158000080108430E49496821F4741108430C49C5
:10159000486001200B490866FFF71AFC054607E082
:1015A0003DE0FFF715FC401B022801D903200FE6A0
:1015B0000348006800F000700028F2D02FE000001F
:1015C000001002400000424280044242007000408D
:1015D000002014490866FFF7FBFB054606E0FFF70D
:1015E000F7FB401B022801D90320F1E50E480068F3
:1015F00000F000700028F2D111E0E069012800D16C
:10160000E6E50948466806F48031206A814204D143
:1016100006F47011606A814201D00120D8E50020F3
:10162000D6E50000000042420010024070B50446BA
:101630002546681EB0F1807F01D301200FE0681EAF
:101640004FF0E02148610F214FF0FF3001F01AFD0B
:1016500000204FF0E021886107200861002070BD64
:1016600030B502460B4600BF92F83C00012801D17C
:10167000022030BD012082F83C0000BF022082F829
:101680003D00106844681068816824F07004186890
:10169000044310684460104D1068A8420BD01068D5
:1016A000B0F1804F07D00D4D1068A84203D00C4D0B
:1016B0001068A84205D121F08001586801431068E4
:1016C0008160012082F83D0000BF002082F83C00CC
:1016D00000BF00BFCDE70000002C01400004004027
:1016E0000008004010B504460CB9012010BD94F864
:1016F0003D0028B9002084F83C00204600F026F880
:10170000022084F83D00211D206801F063F80120CB
:1017100084F8460000BF84F83E0001213F200155B7
:10172000402001554120015500BF00BF012084F831
:10173000420043200155442001554520015500BF7A
:10174000012084F83D000020D0E7000008B50168C2
:10175000B1F1804F0DD100BF0649C96941F00101C7
:10176000044AD1611146C96901F00101009100BF2D
:1017700000BF08BD001002402DE9F04104460D46AF
:10178000002700BF94F83C00012802D10220BDE8E8
:10179000F081012084F83C0000BF022084F83D0065
:1017A0002068866826F0770626F47F4620688660E3
:1017B0002868502833D00CDC202850D004DC0028C6
:1017C0004BD0102851D149E0302849D040284CD185
:1017D00039E060282DD0702807D0B0F5805F03D0A5
:1017E000B0F5005F41D10DE041E0D5E902136A6830
:1017F000206801F042F82068866846F07706206885
:10180000866034E0D5E902136A68206801F035F893
:101810002068806840F480402168886027E0EA689A
:101820006968206801F0FAF85021206801F030F86A
:101830001DE0EA686968206801F003F9602120680A
:1018400001F026F813E0EA686968206801F0E6F81C
:101850004021206801F01CF809E000BF00BF00BF74
:101860002968206801F014F801E0012700BF00BFDB
:10187000012084F83D0000BF002084F83C0000BF38
:10188000384684E710B586B00446002002900390E5
:10189000049005902068B0F1804F17D100BF0C482C
:1018A000806940F004000A4988610846806900F0B8
:1018B0000400019000BF00BF0320029002200390AB
:1018C0000120059002A90348FFF7F2F806B010BD09
:1018D00000100240000801402DE9F04104460D4689
:1018E0001646002700BF94F83C00012802D10220D0
:1018F000BDE8F081012084F83C0000BF36B1042E21
:101900001BD0082E31D00C2E5ED145E02946206830
:1019100000F0C8FF2068806940F0080021688861F5
:101920002068806920F0040021688861206880694F
:10193000296908432168886148E02946206800F049
:10194000E1FF2068806940F40060216888612068B8
:10195000806920F480602168886120688069296935
:1019600040EA01202168886130E02946206800F0C3
:10197000FDFF2068C06940F008002168C861206848
:10198000C06920F004002168C8612068C069296925
:1019900008432168C86119E02946206801F01AF857
:1019A0002068C06940F400602168C8612068C0698F
:1019B00020F480602168C8612068C069296940EA14
:1019C00001202168C86101E0012700BF00BF00BFFE
:1019D000002084F83C0000BF384689E710B5044673
:1019E0000CB9012010BD94F83D0028B9002084F8FE
:1019F0003C00204600F025F8022084F83D00211D1F
:101A0000206800F0E7FE012084F8460000BF84F85B
:101A10003E0001213F200155402001554120015544
:101A200000BF00BF012084F842004320015544203C
:101A300001554520015500BF012084F83D000020DC
:101A4000D0E7704770B504460D4615B994F83E00CE
:101A50000BE0042D02D13F20005D06E0082D02D1ED
:101A60004020005D01E04120005D012801D00120FF
:101A700070BD1DB9022084F83E000EE0042D03D194
:101A800002213F20015508E0082D03D1022140200A
:101A9000015502E00221412001550122294620681A
:101AA00000F0DAFE19492068884201D1012000E0E7
:101AB000002028B12068406C40F400402168486450
:101AC0001249206888420BD02068B0F1804F07D0BF
:101AD0000F492068884203D00E49206888420CD103
:101AE0002068806800F00706062E0CD02068006889
:101AF00040F001002168086005E02068006840F0BF
:101B00000100216808600020B2E70000002C0140BD
:101B10000004004000080040704770B504460025EE
:101B200020684069C0F3C01594F84100212817D1FE
:101B3000B5B100BF00BF2168143151E8001F21F08A
:101B400080002168143141E80002002AF3D100BF6F
:101B5000A06B10B1A06BFEF7C3FD204601F069F841
:101B600020684069C0F3801594F84200222817D1FC
:101B7000B5B100BF00BF2168143151E8001F21F04A
:101B800040002168143141E80002002AF3D100BF6F
:101B9000E06B10B1E06BFEF7A3FD204601F003F807
:101BA000002070BD704700002DE9F84F0446206802
:101BB00005682068C668206847694FF00009CA4672
:101BC00005F00F09B9F1000F0AD105F0200038B176
:101BD00006F0200020B1204601F03EF8BDE8F88F65
:101BE000B9F1000F7BD007F0010018B906F490702E
:101BF000002874D005F0010030B106F4807018B1EF
:101C0000606C40F00100606405F0040030B107F042
:101C1000010018B1606C40F00200606405F0020041
:101C200030B107F0010018B1606C40F0040060644E
:101C300005F0080048B106F0200010B907F00100D7
:101C400018B1606C40F008006064606C002845D0FA
:101C500005F0200028B106F0200010B1204600F069
:101C6000FBFF20684069C0F3801A606C00F0080038
:101C700010B9BAF1000F2CD0204600F094FF206874
:101C8000406900F0400000B300BF00BF216814317C
:101C900051E8001F21F040002168143141E80002A2
:101CA000002AF3D100BFE06B50B17748E16B486385
:101CB000E06BFEF741FD88B1E06B416B88470DE0BA
:101CC0002046FFF76FFF09E009E02046FFF76AFFB3
:101CD00004E02046FFF766FF002060647EE7206B8B
:101CE000012877D105F01000002873D006F010000D
:101CF0000028FAD000BF0020009020680068009003
:101D000020684068009000BF00BF2068406900F074
:101D1000400000285FD0E06B006840681FFA80F840
:101D2000B8F1000F55D0A08D404552DDA4F82E80AB
:101D3000E06B8069202843D000BF00BF21680C31D0
:101D400051E8001F21F4807021680C3141E8000245
:101D5000002AF3D100BF00BF00BF2168143151E851
:101D6000001F21F001002168143141E80002002A1F
:101D7000F3D100BF00BF00BF2168143151E8001F3C
:101D800021F040002168143141E80002002AF3D11B
:101D900000BF202084F842000020206300BF00BF65
:101DA00021680C3151E8001F21F0100021680C312E
:101DB00041E80002002AF3D100BFE06BFEF790FC7F
:101DC00002206063A08DE28D801A81B22046FFF769
:101DD000A3FE03E742E0A08DE18D401A1FFA80F8D0
:101DE000E08DD0B3B8F1000F37D000BF00BF21683D
:101DF0000C3151E8001F21F4907021680C3141E84A
:101E00000002002AF3D100BF00BF00BF21681431D7
:101E100051E8001F21F001002168143141E800025F
:101E2000002AF3D100BF202084F842000020206364
:101E300000BF00BF21680C3151E8001F21F01000E5
:101E400021680C3141E80002002AF3D100BF0220D2
:101E5000606341462046FFF75FFEBFE605F0800065
:101E600030B106F0800018B1204601F055F8B5E613
:101E700005F0400030B106F0400018B1204600F0F7
:101E8000C8FEABE600BFA9E66B2A000810B5044601
:101E90000CB9012010BDA06900B100E000BF94F8AA
:101EA000410028B9002084F84000204600F02AF8BC
:101EB000242084F841002068C06820F40050216884
:101EC000C860204600F046FF2068006920F490407A
:101ED000216808612068406920F02A002168486173
:101EE0002068C06840F400502168C8600020606429
:101EF000202084F8410084F842000020606300BF85
:101F0000C8E7000010B586B0044600200290039098
:101F1000049005907349206888426FD100BF7248D1
:101F2000806940F48040704988610846806900F407
:101F30008040019000BF00BF00BF0846806940F0AC
:101F4000040088610846806900F00400019000BF29
:101F500000BF48150290022003900320059002A9BB
:101F60006248FEF7A5FD4FF48060029000200390C8
:101F7000049002A95D48FEF79BFD5D485D4908603D
:101F80000020486000215B4881608021C160002101
:101F90000161416181614FF40051C161FEF7F2FCC2
:101FA00008B1FEF784FA00BF5248E063446200BF04
:101FB0004F481438504908601020486000214E48AE
:101FC00081608021C16000210161416181614FF424
:101FD0000051C161FEF7D6FC08B1FEF768FA00BFF8
:101FE0004548A063446200BF002211462520FEF749
:101FF00075FF2520FEF762FF72E0FFE73F4920688A
:1020000088426DD100BF3848C06940F4003036497D
:10201000C8610846C06900F40030019000BF00BFED
:1020200000BF0846806940F0040088610846806966
:1020300000F00400019000BF00BF042002900220C5
:1020400003900320059002A92848FEF731FD0820DF
:10205000029000200390049002A92448FEF728FD76
:102060002348143026490860002048600021244895
:1020700081608021C16000210161416181614FF473
:102080000051C161FEF77EFC08B1FEF710FA00BFF7
:102090001B48E063446200BF1548283019490860B6
:1020A000102048600021174881608021C160002114
:1020B0000161416181614FF40051C161FEF762FC31
:1020C00008B1FEF7F4F900BF0E48A063446200BFF8
:1020D000002211462620FEF701FF2620FEF7EEFE25
:1020E00006B010BD00380140001002400008014059
:1020F00058000240EC010020300200200044004063
:1021000074020020B802002070B504460D46164641
:1021100094F8420020280BD105B10EB9012070BD02
:102120000020206332462946204600F091FEF6E763
:102130000220F4E7704770472DE9F84F04460E4639
:10214000174699464FF0000A94F84100202850D1D4
:1021500006B117B90120BDE8F88F00206064212086
:1021600084F84100FEF734FE8246A784E784A06825
:10217000B0F5805F04D1206910B90025B04602E0B7
:1021800035464FF000081EE05346002280212046CD
:10219000CDF8009000F0F0FE20B1202084F841003E
:1021A0000320D8E745B9B8F80000C0F3080021685B
:1021B000486008F1020803E02878216848606D1C37
:1021C000E08C401EE084E08C0028DDD153460022E4
:1021D00040212046CDF8009000F0CEFE20B1202016
:1021E00084F841000320B6E7202084F84100002055
:1021F000B1E70220AFE7704700BFFEE708B500BFB8
:102200001648406940F00100144948610846406999
:1022100000F00100009000BF00BF002211460E2018
:10222000FEF75CFE0E20FEF749FE002211460F204D
:10223000FEF754FE0F20FEF741FE0022114610204B
:10224000FEF74CFE1020FEF739FE00221146112049
:10225000FEF744FE1120FEF731FE08BD00100240DB
:1022600008B500BF0D48806940F020000B49886127
:102270000846806900F02000009000BF00BF00BF4A
:102280000846806940F0040088610846806900F0D3
:102290000400009000BF00BF08BD00000010024015
:1022A00000B58DB0002009900A900B900C9007901B
:1022B00008901C216846FDF750FF4FF080402449EC
:1022C000086040F2CF20486000212148816040F240
:1022D000CF71C160002101618161FFF703FA08B18C
:1022E000FEF7E5F84FF48050099009A91848FFF768
:1022F00043FA08B1FEF7DBF81548FFF76FFB08B1AA
:10230000FEF7D5F800200790089007A91048FFF7BE
:10231000A7F908B1FEF7CBF86020009000200190EB
:1023200002900490002269460948FFF7D5FA08B1E7
:10233000FEF7BDF8042269460548FFF7CDFA08B15B
:10234000FEF7B5F80248FFF79DFA0DB000BD00009A
:102350001401002010B50B480B4908604FF4E13020
:102360004860002108488160C16001610C21416121
:1023700000218161C161FFF789FD08B1FEF797F87F
:1023800010BD0000003801405C01002010B50B4872
:102390000B4908604FF4E130486000210848816033
:1023A000C16001610C21416100218161C161FFF7C0
:1023B0006DFD08B1FEF77BF810BD00000044004041
:1023C000A401002000BFFEE700BFFEE72DE9F041B9
:1023D00004460E46154614B90020BDE8F081216C74
:1023E0006164E16B2164A561E66131462846FDF731
:1023F00011FFE063207800284DD1E16B6068FDF7A4
:102400000FFF6062E16BA068FDF70AFF0746A16A53
:10241000FDF7AEFEA062616BA163216B6163D4E93D
:102420000F01FDF7F7FE2063216BE068FDF7F8FE72
:10243000E0626169A06AFDF78FFF02D26069A06265
:102440000BE0606980F000473846A16AFDF784FF21
:1024500003D2606980F00040A062D4E90901FDF771
:1024600087FE0746E16AFDF783FE20622169206A44
:10247000FDF772FF02D22069206255E0206980F0EA
:1024800000473846216AFDF767FF4DD2206980F08A
:102490000040206248E02078012845D1D4E90F01AE
:1024A000FDF7B8FE07466168FDF7BAFE6062E16BB2
:1024B000A068FDF7B5FEA062616BA163216B61634B
:1024C0004FF08040216CFDF7ABFE8046E16BFDF7DD
:1024D000A4FE0746616CFDF74BFE2063216BE068AC
:1024E000FDF79EFEE062D4E90901FDF741FE80465A
:1024F000E16AFDF73DFE0746216AFDF739FE2062DD
:102500002169206AFDF728FF02D2206920620BE0D2
:10251000206980F000473846216AFDF71DFF03D28D
:10252000206980F000402062206A56E700B97047B9
:10253000002242640264C263826342630263002138
:10254000C1628162416201628161C16100BFEEE7E7
:1025500070B5049C00B102B970BD0170156845608A
:10256000556885609568C56003614461002686638F
:1025700046630663C6628662466246640664C66354
:1025800000BFE9E770470000F8B50446206800681E
:10259000C0F3001078B300BF0020009020680068EE
:1025A000009020684068009000BF00BF2046FFF701
:1025B000B4FAE06B00684068C0F1800085B207267D
:1025C000072D12D10C4800785A280ED10A4880797C
:1025D000ED280AD1094808490A6802608A88828081
:1025E00089798171012006490870802202492046BC
:1025F000FFF78AFD00BFF8BDFC0200202800002084
:102600002F00002010B504460020074908702068FC
:10261000C06840F010002168C8608022034920464D
:10262000FFF772FD10BD00002F000020FC0200200B
:1026300001460848007858B1074802680A60828855
:102640008A80807988710020024A107001207047CA
:102650000020FCE72F0000202800002008B50849D2
:102660000968C9084FF47A72B1FBF2F14143009155
:1026700000BF00BF00994A1E00920029F9D108BD91
:1026800024000020704700002DE9F04104460D466B
:1026900016461F46DDF81880256066602761C4F87D
:1026A00014803220A061FA20E0610448A060D4E9DF
:1026B0000001FFF7C7F9BDE8F081000000003443D6
:1026C0002DE9FC5F04460E4630462169FDF73AFECF
:1026D00000D2266930466169FDF73EFE00D2666988
:1026E000E660A660D4E90410FDF794FD8246D4E9C3
:1026F0000621881AFDF70DFE00902169A068FDF7FC
:1027000089FD83460099FDF78BFD81465146FDF713
:10271000B9FD8046A069FDF7FCFD41460190FDF73B
:1027200027FD0746384600F041FD8046FDF7F6FDDF
:102730000546606818B920680068456310E0606865
:10274000042803D120680068856309E060680828D0
:1027500003D120680068C56302E020680068056452
:10276000BDE8FC9F10B5FEF739FB10BD00B58FB07A
:10277000282105A8FDF7F1FC14216846FDF7EDFCC2
:102780000120059000040690002007900120099088
:1027900002200C90C1030D914FF4E0110E9105A899
:1027A000FEF712FD08B1FDF782FE0F200090022017
:1027B0000190002002904FF480600390002004906C
:1027C00002216846FEF7DCFB08B1FDF770FE0FB092
:1027D00000BD704710B502681C4B984208D0B0F19C
:1027E000804F05D01A4B984202D01A4B984203D121
:1027F00022F070024B681A43144B984208D0B0F193
:10280000804F05D0124B984202D0124B984203D110
:1028100022F44072CB681A4322F080034C6943EAE9
:10282000040202608B68C3620B688362074B9842A4
:1028300001D10B69036301234361036903F00103C1
:102840001BB1036923F00103036110BD002C01409B
:10285000000400400008004030B501F01F050124CD
:1028600004FA05F3046A9C430462046A01F01F053C
:1028700002FA05F52C43046230BD30B50C46816880
:1028800021F47F4142EA032525432943816030BD7D
:102890000A46816821F0700142F007031943816004
:1028A0007047000030B5026A056A25F0010505622F
:1028B0004368846924F0700424F003040D682C43F9
:1028C00022F002028D682A430D4DA84206D100BFB6
:1028D00022F00802CD682A4322F00402084DA842E3
:1028E00007D123F4807323F400734D692B438D6962
:1028F0002B43436084614D684563026230BD000034
:10290000002C014030B5026A056A25F01005056209
:102910004368846924F4E04424F440740D6844EA74
:10292000052422F020028D6842EA05120E4DA842CD
:1029300007D100BF22F08002CD6842EA051222F0E2
:102940004002094DA84209D123F4806323F40063B7
:102950004D6943EA85038D6943EA850343608461D9
:102960004D688563026230BD002C014030B5026ABB
:10297000056A25F4807505624368C46924F0700413
:1029800024F003040D682C4322F400728D6842EA9F
:1029900005220F4DA84207D100BF22F40062CD6886
:1029A00042EA052222F48062094DA84209D123F4AB
:1029B000805323F400534D6943EA05138D6943EABC
:1029C00005134360C4614D68C563026230BD0000F9
:1029D000002C014030B5036A056A25F48055056274
:1029E0004468C26922F4E04222F440720D6842EA6F
:1029F000052223F400538D6843EA0533064DA842AF
:102A000004D124F480444D6944EA85144460C261D1
:102A10004D680564036230BD002C014030B50B46A3
:102A20001446026A056A25F001050562816921F0F4
:102A3000F00141EA041122F00A021A4381610262A4
:102A400030BD30B50B461446026A056A25F0100504
:102A50000562816921F4704141EA043122F0A0024B
:102A600042EA03128161026230BD70B505466C6AAC
:102A70000020E085E0842046FFF794F870BD70B533
:102A800006460025746A20684069C0F3C01594F8B2
:102A90004100212805D125B10020E084204600F026
:102AA000C8F820684069C0F3801594F842002228D5
:102AB00005D125B10020E085204600F074F8606C57
:102AC00040F0100060642046FFF76CF870BD70B5F0
:102AD00005466C6A2868006800F02000002842D192
:102AE000E08500BF00BF21680C3151E8001F21F4D0
:102AF000807021680C3141E80002002AF3D100BF48
:102B000000BF00BF2168143151E8001F21F001000F
:102B10002168143141E80002002AF3D100BF00BF50
:102B200000BF2168143151E8001F21F040002168E6
:102B3000143141E80002002AF3D100BF202084F8BC
:102B40004200206B01280ED100BF00BF21680C316C
:102B500051E8001F21F0100021680C3141E800020B
:102B6000002AF3D100BF00206063206B012804D14C
:102B7000A18D2046FEF7D0FF02E02046FFF7DAFAEB
:102B800070BD70B505466C6A01206063206B01283A
:102B900005D1A08D41082046FEF7BEFF02E0204689
:102BA000FFF7C9FA70BD00BF00BF02680C3252E8DF
:102BB000002F22F4907102680C3242E80013002BBF
:102BC000F3D100BF00BF00BF0268143252E8002FEB
:102BD00022F001010268143242E80013002BF3D105
:102BE00000BF016B01290ED100BF00BF02680C328B
:102BF00052E8002F22F0100102680C3242E8001364
:102C0000002BF3D100BF202180F842100021016386
:102C1000704710B504462068C06820F04000216865
:102C2000C860202084F841002046FFF7E4FA002025
:102C300010BD00BF00BF02680C3252E8002F22F026
:102C4000C00102680C3242E80013002BF3D100BF30
:102C5000202180F841107047F8B5044694F84200EE
:102C6000222875D1A068B0F5805F0CD1206950B9D9
:102C70000025A66A20684068C0F308003080A06A7A
:102C8000801CA06215E0A56A0026A068B0F5805FF0
:102C900003D0A06828B9206918B920684068287056
:102CA00004E02068406800F07F002870A06A401CA3
:102CB000A062E08D401E80B2E085002846D12068E9
:102CC000C06820F020002168C8602068C06820F437
:102CD00080702168C8602068406920F00100216888
:102CE0004861202084F8420000206063206B0128A6
:102CF00026D10020206300BF00BF21680C3151E8BD
:102D0000001F21F0100021680C3141E80002002A68
:102D1000F3D100BF2068006800F0100010280AD12D
:102D200000BF002000902068006800902068406884
:102D3000009000BF00BFA18D2046FEF7EDFE02E02F
:102D40002046FFF7F7F90020F8BD01E00020FBE77F
:102D50000220F9E770B504462168096921F4405161
:102D6000E2681143226811612269A1681143626916
:102D700041EA02052168C96841F20C629143294386
:102D80002268D1602168496921F44071A269114328
:102D9000226851612D4A2168914202D1FEF7CCF997
:102DA00001E0FEF7B9F900EBC00101EB0011626828
:102DB0009200B1FBF2F100EBC00202EB001263687B
:102DC0009B00B2FBF3F26423B2FBF3F202EBC2030B
:102DD00003EB0212A1EB8201322202EB0111642209
:102DE000B1FBF2F101F0F00100EBC00202EB0012C6
:102DF00063689B00B2FBF3F26423B2FBF3F201EBD6
:102E0000021200EBC00101EB001163689B00B1FBF3
:102E1000F3F100EBC00303EB00136668B600B3FBED
:102E2000F6F36426B3FBF6F303EBC30606EB0313DA
:102E3000A1EB8301322303EB01116423B1FBF3F116
:102E400001F00F0111442268916070BD003801400B
:102E500077B581B0044615460298A062A58500208A
:102E60006064222084F842002848E16B8862284888
:102E7000E16BC8622748E16B08630020E16B48639F
:102E800002AE32682368191D2B46E06BFDF7AEFDDC
:102E900000BF002000902068006800902068406813
:102EA000009000BF00BF206970B100BF00BF216863
:102EB0000C3151E8001F41F4807021680C3141E869
:102EC0000002002AF3D100BF00BF00BF2168143107
:102ED00051E8001F41F001002168143141E800026F
:102EE000002AF3D100BF00BF00BF2168143151E8B0
:102EF000001F41F040002168143141E80002002A1F
:102F0000F3D100BF002004B070BD0000CF2A00083C
:102F1000832B00087F2A0008014691F841002128F0
:102F200028D18868B0F5805F0BD1086948B90A6A72
:102F30001088C0F308000B685860086A801C08629B
:102F400005E00B6A581C086218780B685860C88C3A
:102F5000401E80B2C88458B90868C06820F080005C
:102F60000B68D8600868C06840F040000B68D86003
:102F7000002070470220FCE72DE9F84304460D4687
:102F800017469846089E31E0701C70B3FDF720FF8D
:102F9000A0EB0800B04200D816B90320BDE8F883C2
:102FA0002068C06800F00400F8B1802D1ED0402DCC
:102FB0001CD020680068C0F3C000B0B100BF002082
:102FC000009020680068009020684068009000BF72
:102FD00000BF2046FFF7E7FD0820606400BF002027
:102FE00084F8400000BF0120D8E7FFE720680068B0
:102FF0002840A84201D1012000E00020B842C3D0FF
:103000000020CBE710B50348FFF7BEFA0148FEF7F2
:10301000CBFD10BD5C01002010B50348FFF7B4FAEA
:103020000148FEF7C1FD10BDA401002000BFFEE76E
:1030300070B505460E46B006040E224629460B48DA
:10304000FDF772F80020094908550021074A601C65
:1030500011548021A01C11547F21E01C11540A231B
:10306000221D02490248FFF767F870BD7C0300206B
:10307000A401002002480068C0F30220704700004D
:103080000CED00E010B5002804DB0A07130E054A1A
:10309000135406E00A07140E034A00F00F031B1F27
:1030A000D45410BD00E400E018ED00E002E008C8D0
:1030B000121F08C1002AFAD170477047002001E0B2
:1030C00001C1121F002AFBD17047014621F00040C8
:1030D000704700000EB5FDF78DFEFFF747FBFFF7C9
:1030E000BFF8FFF78BF8FFF7DBF8FFF733F9FFF7CF
:1030F0004DF9224800231A46214900902148FFF744
:10310000C3FA21491F48FFF7DBFA1C481F4B042272
:103110001B4900901E48FFF7B7FA1E491C48FFF7ED
:10312000CFFA1D48FFF76EFA4FF07E504FF0804304
:103130001A4A002100901A48FFF70AFA4FF07E5011
:103140004FF08043174A002100901748FFF700FA1C
:1031500012E0FDF7AFF91448806900901248C06989
:1031600001901148006A029003216846FFF760FF52
:103170000A20FDF789FC00BFEBE7000000003443A4
:1031800014010020440000200000A0420000704212
:10319000640000200000F0425C01002000000020DC
:1031A000840000200C000020CC00002070B50546F3
:1031B000FDF713F9044601462846FDF72BF815F0F4
:1031C000004F4FF07F410ED0B0F13F4F28BFB1EB21
:1031D000400F0ED2B0F17C5F1DDDB1EB400F1AD372
:1031E00013E0044617E0B0F13F4F08D9B1EB400FB0
:1031F00005D34FF07E512046FDF70CF8F1E7B0F112
:103200007C5F08DBB1EB400F05D34FF07E512046C9
:10321000FCF7AEFFE5E7284664F31E0070BD02032D
:103220000405060708090A0B0C0D0E0F1010010209
:103230000000000000000000010203040607080966
:1032400000000000010203046832000800000020B2
:1032500044000000AC300008AC32000844000020FC
:103260005C070000BC3000089EEFA73C6F12833A59
:10327000CDCCCC3D0AD7A33C6F12833A1F85EB3DE2
:1032800000000000100000000100000000127A00A1
:10329000000000000000000000000000000000002E
:0C32A00000000000000000000000000022
:04000005080000ED02
:00000001FF
